{
  "_format": "hh-sol-artifact-1",
  "contractName": "ClaimRegistry",
  "sourceName": "contracts/ClaimRegistry.sol",
  "abi": [
    {
      "inputs": [
        {
          "internalType": "address",
          "name": "admin",
          "type": "address"
        },
        {
          "internalType": "address",
          "name": "oracleAddress",
          "type": "address"
        },
        {
          "internalType": "address",
          "name": "tokenAddress",
          "type": "address"
        }
      ],
      "stateMutability": "nonpayable",
      "type": "constructor"
    },
    {
      "inputs": [],
      "name": "AccessControlBadConfirmation",
      "type": "error"
    },
    {
      "inputs": [
        {
          "internalType": "address",
          "name": "account",
          "type": "address"
        },
        {
          "internalType": "bytes32",
          "name": "neededRole",
          "type": "bytes32"
        }
      ],
      "name": "AccessControlUnauthorizedAccount",
      "type": "error"
    },
    {
      "anonymous": false,
      "inputs": [
        {
          "indexed": true,
          "internalType": "uint256",
          "name": "claimId",
          "type": "uint256"
        },
        {
          "indexed": true,
          "internalType": "address",
          "name": "to",
          "type": "address"
        },
        {
          "indexed": false,
          "internalType": "uint256",
          "name": "amount",
          "type": "uint256"
        },
        {
          "indexed": false,
          "internalType": "address",
          "name": "token",
          "type": "address"
        }
      ],
      "name": "ClaimPayout",
      "type": "event"
    },
    {
      "anonymous": false,
      "inputs": [
        {
          "indexed": true,
          "internalType": "uint256",
          "name": "claimId",
          "type": "uint256"
        },
        {
          "indexed": false,
          "internalType": "enum ClaimRegistry.ClaimStatus",
          "name": "status",
          "type": "uint8"
        }
      ],
      "name": "ClaimStatusChanged",
      "type": "event"
    },
    {
      "anonymous": false,
      "inputs": [
        {
          "indexed": true,
          "internalType": "uint256",
          "name": "claimId",
          "type": "uint256"
        },
        {
          "indexed": true,
          "internalType": "uint256",
          "name": "policyId",
          "type": "uint256"
        },
        {
          "indexed": true,
          "internalType": "address",
          "name": "claimant",
          "type": "address"
        },
        {
          "indexed": false,
          "internalType": "bytes32",
          "name": "merkleRoot",
          "type": "bytes32"
        },
        {
          "indexed": false,
          "internalType": "uint256",
          "name": "amount",
          "type": "uint256"
        },
        {
          "indexed": false,
          "internalType": "uint256",
          "name": "timestamp",
          "type": "uint256"
        }
      ],
      "name": "ClaimSubmitted",
      "type": "event"
    },
    {
      "anonymous": false,
      "inputs": [
        {
          "indexed": true,
          "internalType": "bytes32",
          "name": "role",
          "type": "bytes32"
        },
        {
          "indexed": true,
          "internalType": "bytes32",
          "name": "previousAdminRole",
          "type": "bytes32"
        },
        {
          "indexed": true,
          "internalType": "bytes32",
          "name": "newAdminRole",
          "type": "bytes32"
        }
      ],
      "name": "RoleAdminChanged",
      "type": "event"
    },
    {
      "anonymous": false,
      "inputs": [
        {
          "indexed": true,
          "internalType": "bytes32",
          "name": "role",
          "type": "bytes32"
        },
        {
          "indexed": true,
          "internalType": "address",
          "name": "account",
          "type": "address"
        },
        {
          "indexed": true,
          "internalType": "address",
          "name": "sender",
          "type": "address"
        }
      ],
      "name": "RoleGranted",
      "type": "event"
    },
    {
      "anonymous": false,
      "inputs": [
        {
          "indexed": true,
          "internalType": "bytes32",
          "name": "role",
          "type": "bytes32"
        },
        {
          "indexed": true,
          "internalType": "address",
          "name": "account",
          "type": "address"
        },
        {
          "indexed": true,
          "internalType": "address",
          "name": "sender",
          "type": "address"
        }
      ],
      "name": "RoleRevoked",
      "type": "event"
    },
    {
      "inputs": [],
      "name": "ADMIN_ROLE",
      "outputs": [
        {
          "internalType": "bytes32",
          "name": "",
          "type": "bytes32"
        }
      ],
      "stateMutability": "view",
      "type": "function"
    },
    {
      "inputs": [],
      "name": "DEFAULT_ADMIN_ROLE",
      "outputs": [
        {
          "internalType": "bytes32",
          "name": "",
          "type": "bytes32"
        }
      ],
      "stateMutability": "view",
      "type": "function"
    },
    {
      "inputs": [],
      "name": "UNDERWRITER_ROLE",
      "outputs": [
        {
          "internalType": "bytes32",
          "name": "",
          "type": "bytes32"
        }
      ],
      "stateMutability": "view",
      "type": "function"
    },
    {
      "inputs": [
        {
          "internalType": "uint256",
          "name": "",
          "type": "uint256"
        }
      ],
      "name": "claims",
      "outputs": [
        {
          "internalType": "uint256",
          "name": "claimId",
          "type": "uint256"
        },
        {
          "internalType": "uint256",
          "name": "policyId",
          "type": "uint256"
        },
        {
          "internalType": "address",
          "name": "claimant",
          "type": "address"
        },
        {
          "internalType": "bytes32",
          "name": "merkleRoot",
          "type": "bytes32"
        },
        {
          "internalType": "uint256",
          "name": "amount",
          "type": "uint256"
        },
        {
          "internalType": "enum ClaimRegistry.ClaimStatus",
          "name": "status",
          "type": "uint8"
        },
        {
          "internalType": "uint256",
          "name": "submittedAt",
          "type": "uint256"
        },
        {
          "internalType": "uint256",
          "name": "processedAt",
          "type": "uint256"
        }
      ],
      "stateMutability": "view",
      "type": "function"
    },
    {
      "inputs": [
        {
          "internalType": "uint256",
          "name": "policyId",
          "type": "uint256"
        }
      ],
      "name": "getClaimsForPolicy",
      "outputs": [
        {
          "internalType": "uint256[]",
          "name": "",
          "type": "uint256[]"
        }
      ],
      "stateMutability": "view",
      "type": "function"
    },
    {
      "inputs": [
        {
          "internalType": "bytes32",
          "name": "role",
          "type": "bytes32"
        }
      ],
      "name": "getRoleAdmin",
      "outputs": [
        {
          "internalType": "bytes32",
          "name": "",
          "type": "bytes32"
        }
      ],
      "stateMutability": "view",
      "type": "function"
    },
    {
      "inputs": [
        {
          "internalType": "bytes32",
          "name": "role",
          "type": "bytes32"
        },
        {
          "internalType": "address",
          "name": "account",
          "type": "address"
        }
      ],
      "name": "grantRole",
      "outputs": [],
      "stateMutability": "nonpayable",
      "type": "function"
    },
    {
      "inputs": [
        {
          "internalType": "bytes32",
          "name": "role",
          "type": "bytes32"
        },
        {
          "internalType": "address",
          "name": "account",
          "type": "address"
        }
      ],
      "name": "hasRole",
      "outputs": [
        {
          "internalType": "bool",
          "name": "",
          "type": "bool"
        }
      ],
      "stateMutability": "view",
      "type": "function"
    },
    {
      "inputs": [],
      "name": "nextClaimId",
      "outputs": [
        {
          "internalType": "uint256",
          "name": "",
          "type": "uint256"
        }
      ],
      "stateMutability": "view",
      "type": "function"
    },
    {
      "inputs": [],
      "name": "oracle",
      "outputs": [
        {
          "internalType": "contract IOracle",
          "name": "",
          "type": "address"
        }
      ],
      "stateMutability": "view",
      "type": "function"
    },
    {
      "inputs": [
        {
          "internalType": "bytes32",
          "name": "",
          "type": "bytes32"
        }
      ],
      "name": "oracleRequests",
      "outputs": [
        {
          "internalType": "uint256",
          "name": "",
          "type": "uint256"
        }
      ],
      "stateMutability": "view",
      "type": "function"
    },
    {
      "inputs": [
        {
          "internalType": "uint256",
          "name": "claimId",
          "type": "uint256"
        }
      ],
      "name": "payoutClaim",
      "outputs": [],
      "stateMutability": "nonpayable",
      "type": "function"
    },
    {
      "inputs": [],
      "name": "payoutToken",
      "outputs": [
        {
          "internalType": "address",
          "name": "",
          "type": "address"
        }
      ],
      "stateMutability": "view",
      "type": "function"
    },
    {
      "inputs": [
        {
          "internalType": "uint256",
          "name": "",
          "type": "uint256"
        },
        {
          "internalType": "uint256",
          "name": "",
          "type": "uint256"
        }
      ],
      "name": "policyClaims",
      "outputs": [
        {
          "internalType": "uint256",
          "name": "",
          "type": "uint256"
        }
      ],
      "stateMutability": "view",
      "type": "function"
    },
    {
      "inputs": [
        {
          "internalType": "bytes32",
          "name": "role",
          "type": "bytes32"
        },
        {
          "internalType": "address",
          "name": "callerConfirmation",
          "type": "address"
        }
      ],
      "name": "renounceRole",
      "outputs": [],
      "stateMutability": "nonpayable",
      "type": "function"
    },
    {
      "inputs": [
        {
          "internalType": "uint256",
          "name": "claimId",
          "type": "uint256"
        },
        {
          "internalType": "string",
          "name": "endpoint",
          "type": "string"
        }
      ],
      "name": "requestOracleVerification",
      "outputs": [],
      "stateMutability": "nonpayable",
      "type": "function"
    },
    {
      "inputs": [
        {
          "internalType": "bytes32",
          "name": "role",
          "type": "bytes32"
        },
        {
          "internalType": "address",
          "name": "account",
          "type": "address"
        }
      ],
      "name": "revokeRole",
      "outputs": [],
      "stateMutability": "nonpayable",
      "type": "function"
    },
    {
      "inputs": [
        {
          "internalType": "uint256",
          "name": "claimId",
          "type": "uint256"
        },
        {
          "internalType": "enum ClaimRegistry.ClaimStatus",
          "name": "status",
          "type": "uint8"
        }
      ],
      "name": "setClaimStatus",
      "outputs": [],
      "stateMutability": "nonpayable",
      "type": "function"
    },
    {
      "inputs": [
        {
          "internalType": "address",
          "name": "oracleAddress",
          "type": "address"
        }
      ],
      "name": "setOracle",
      "outputs": [],
      "stateMutability": "nonpayable",
      "type": "function"
    },
    {
      "inputs": [
        {
          "internalType": "address",
          "name": "tokenAddress",
          "type": "address"
        }
      ],
      "name": "setPayoutToken",
      "outputs": [],
      "stateMutability": "nonpayable",
      "type": "function"
    },
    {
      "inputs": [
        {
          "internalType": "uint256",
          "name": "policyId",
          "type": "uint256"
        },
        {
          "internalType": "bytes32",
          "name": "merkleRoot",
          "type": "bytes32"
        },
        {
          "internalType": "uint256",
          "name": "amount",
          "type": "uint256"
        }
      ],
      "name": "submitClaim",
      "outputs": [
        {
          "internalType": "uint256",
          "name": "",
          "type": "uint256"
        }
      ],
      "stateMutability": "nonpayable",
      "type": "function"
    },
    {
      "inputs": [
        {
          "internalType": "bytes4",
          "name": "interfaceId",
          "type": "bytes4"
        }
      ],
      "name": "supportsInterface",
      "outputs": [
        {
          "internalType": "bool",
          "name": "",
          "type": "bool"
        }
      ],
      "stateMutability": "view",
      "type": "function"
    }
  ],
  "bytecode": "0x6080604052600180553480156200001557600080fd5b50604051620020a2380380620020a283398181016040528101906200003b9190620002ee565b620000506000801b846200010f60201b60201c565b50620000837fa49807205ce4d355092ef5a8a18f56e8913cf4a201fbe287825b095693c21775846200010f60201b60201c565b5081600560006101000a81548173ffffffffffffffffffffffffffffffffffffffff021916908373ffffffffffffffffffffffffffffffffffffffff16021790555080600660006101000a81548173ffffffffffffffffffffffffffffffffffffffff021916908373ffffffffffffffffffffffffffffffffffffffff1602179055505050506200034a565b60006200012383836200021260201b60201c565b6200020757600160008085815260200190815260200160002060000160008473ffffffffffffffffffffffffffffffffffffffff1673ffffffffffffffffffffffffffffffffffffffff16815260200190815260200160002060006101000a81548160ff021916908315150217905550620001a36200027c60201b60201c565b73ffffffffffffffffffffffffffffffffffffffff168273ffffffffffffffffffffffffffffffffffffffff16847f2f8788117e7eff1d82e926ec794901d17c78024a50270940304540a733656f0d60405160405180910390a4600190506200020c565b600090505b92915050565b600080600084815260200190815260200160002060000160008373ffffffffffffffffffffffffffffffffffffffff1673ffffffffffffffffffffffffffffffffffffffff16815260200190815260200160002060009054906101000a900460ff16905092915050565b600033905090565b600080fd5b600073ffffffffffffffffffffffffffffffffffffffff82169050919050565b6000620002b68262000289565b9050919050565b620002c881620002a9565b8114620002d457600080fd5b50565b600081519050620002e881620002bd565b92915050565b6000806000606084860312156200030a576200030962000284565b5b60006200031a86828701620002d7565b93505060206200032d86828701620002d7565b92505060406200034086828701620002d7565b9150509250925092565b611d48806200035a6000396000f3fe608060405234801561001057600080fd5b50600436106101425760003560e01c806391d14854116100b8578063b817e6801161007c578063b817e680146103a4578063d547741f146103c0578063eaf1ffa1146103dc578063f01b571a1461040c578063f02ae48f1461042a578063f14e49ae1461044657610142565b806391d14854146102d1578063a0021cf114610301578063a217fddf1461031f578063a40afcf71461033d578063a888c2cd1461036d57610142565b80634efa82b61161010a5780634efa82b6146101fb578063560eb3941461021957806375b238fc146102495780637adbf973146102675780637dc0d1d014610283578063824ba25f146102a157610142565b806301ffc9a7146101475780630d13fa5a14610177578063248a9ca3146101935780632f2ff15d146101c357806336568abe146101df575b600080fd5b610161600480360381019061015c9190611297565b610462565b60405161016e91906112df565b60405180910390f35b610191600480360381019061018c9190611330565b6104dc565b005b6101ad60048036038101906101a89190611393565b6107bf565b6040516101ba91906113cf565b60405180910390f35b6101dd60048036038101906101d89190611448565b6107de565b005b6101f960048036038101906101f49190611448565b610800565b005b61020361087b565b6040516102109190611497565b60405180910390f35b610233600480360381019061022e91906114b2565b6108a1565b6040516102409190611501565b60405180910390f35b6102516108d2565b60405161025e91906113cf565b60405180910390f35b610281600480360381019061027c919061151c565b6108f6565b005b61028b610965565b60405161029891906115a8565b60405180910390f35b6102bb60048036038101906102b69190611330565b61098b565b6040516102c89190611681565b60405180910390f35b6102eb60048036038101906102e69190611448565b6109f6565b6040516102f891906112df565b60405180910390f35b610309610a60565b6040516103169190611501565b60405180910390f35b610327610a66565b60405161033491906113cf565b60405180910390f35b61035760048036038101906103529190611393565b610a6d565b6040516103649190611501565b60405180910390f35b61038760048036038101906103829190611330565b610a85565b60405161039b98979695949392919061171a565b60405180910390f35b6103be60048036038101906103b991906117fd565b610afa565b005b6103da60048036038101906103d59190611448565b610c05565b005b6103f660048036038101906103f1919061185d565b610c27565b6040516104039190611501565b60405180910390f35b610414610d91565b60405161042191906113cf565b60405180910390f35b610444600480360381019061043f919061151c565b610db5565b005b610460600480360381019061045b91906118d5565b610e24565b005b60007f7965db0b000000000000000000000000000000000000000000000000000000007bffffffffffffffffffffffffffffffffffffffffffffffffffffffff1916827bffffffffffffffffffffffffffffffffffffffffffffffffffffffff191614806104d557506104d482610f7b565b5b9050919050565b7ff63acc52fa4ad8a2695e14522f3df504db5c225cdd3d3a5acd3569b44457218761050681610fe5565b60006002600084815260200190815260200160002090506000816000015403610564576040517f08c379a000000000000000000000000000000000000000000000000000000000815260040161055b90611972565b60405180910390fd5b60026004811115610578576105776116a3565b5b8160050160009054906101000a900460ff16600481111561059c5761059b6116a3565b5b146105dc576040517f08c379a00000000000000000000000000000000000000000000000000000000081526004016105d3906119de565b60405180910390fd5b60038160050160006101000a81548160ff02191690836004811115610604576106036116a3565b5b02179055504281600701819055506000600660009054906101000a900473ffffffffffffffffffffffffffffffffffffffff1690508073ffffffffffffffffffffffffffffffffffffffff1663a9059cbb8360020160009054906101000a900473ffffffffffffffffffffffffffffffffffffffff1684600401546040518363ffffffff1660e01b815260040161069c9291906119fe565b6020604051808303816000875af11580156106bb573d6000803e3d6000fd5b505050506040513d601f19601f820116820180604052508101906106df9190611a53565b61071e576040517f08c379a000000000000000000000000000000000000000000000000000000000815260040161071590611acc565b60405180910390fd5b8160020160009054906101000a900473ffffffffffffffffffffffffffffffffffffffff1673ffffffffffffffffffffffffffffffffffffffff16847fed66290a5b1fd35e6dbcd77ba3c05ebc0f3784d7725eb49cacfd8413c78fa1658460040154600660009054906101000a900473ffffffffffffffffffffffffffffffffffffffff166040516107b1929190611aec565b60405180910390a350505050565b6000806000838152602001908152602001600020600101549050919050565b6107e7826107bf565b6107f081610fe5565b6107fa8383610ff9565b50505050565b6108086110ea565b73ffffffffffffffffffffffffffffffffffffffff168173ffffffffffffffffffffffffffffffffffffffff161461086c576040517f6697b23200000000000000000000000000000000000000000000000000000000815260040160405180910390fd5b61087682826110f2565b505050565b600660009054906101000a900473ffffffffffffffffffffffffffffffffffffffff1681565b600360205281600052604060002081815481106108bd57600080fd5b90600052602060002001600091509150505481565b7fa49807205ce4d355092ef5a8a18f56e8913cf4a201fbe287825b095693c2177581565b7fa49807205ce4d355092ef5a8a18f56e8913cf4a201fbe287825b095693c2177561092081610fe5565b81600560006101000a81548173ffffffffffffffffffffffffffffffffffffffff021916908373ffffffffffffffffffffffffffffffffffffffff1602179055505050565b600560009054906101000a900473ffffffffffffffffffffffffffffffffffffffff1681565b6060600360008381526020019081526020016000208054806020026020016040519081016040528092919081815260200182805480156109ea57602002820191906000526020600020905b8154815260200190600101908083116109d6575b50505050509050919050565b600080600084815260200190815260200160002060000160008373ffffffffffffffffffffffffffffffffffffffff1673ffffffffffffffffffffffffffffffffffffffff16815260200190815260200160002060009054906101000a900460ff16905092915050565b60015481565b6000801b81565b60046020528060005260406000206000915090505481565b60026020528060005260406000206000915090508060000154908060010154908060020160009054906101000a900473ffffffffffffffffffffffffffffffffffffffff16908060030154908060040154908060050160009054906101000a900460ff16908060060154908060070154905088565b7fa49807205ce4d355092ef5a8a18f56e8913cf4a201fbe287825b095693c21775610b2481610fe5565b600042858585604051602001610b3d9493929190611b75565b604051602081830303815290604052805190602001209050846004600083815260200190815260200160002081905550600560009054906101000a900473ffffffffffffffffffffffffffffffffffffffff1673ffffffffffffffffffffffffffffffffffffffff1663cc8d01d88286866040518463ffffffff1660e01b8152600401610bcc93929190611bee565b600060405180830381600087803b158015610be657600080fd5b505af1158015610bfa573d6000803e3d6000fd5b505050505050505050565b610c0e826107bf565b610c1781610fe5565b610c2183836110f2565b50505050565b60008060016000815480929190610c3d90611c4f565b9190505590506000600260008381526020019081526020016000209050818160000181905550858160010181905550338160020160006101000a81548173ffffffffffffffffffffffffffffffffffffffff021916908373ffffffffffffffffffffffffffffffffffffffff16021790555084816003018190555083816004018190555060008160050160006101000a81548160ff02191690836004811115610ce957610ce86116a3565b5b0217905550428160060181905550600360008781526020019081526020016000208290806001815401808255809150506001900390600052602060002001600090919091909150553373ffffffffffffffffffffffffffffffffffffffff1686837f8997214facc23d5c556bbddb41a7ae8eec635718bae39dd6aa3ee40876dd6930888842604051610d7d93929190611c97565b60405180910390a481925050509392505050565b7ff63acc52fa4ad8a2695e14522f3df504db5c225cdd3d3a5acd3569b44457218781565b7fa49807205ce4d355092ef5a8a18f56e8913cf4a201fbe287825b095693c21775610ddf81610fe5565b81600660006101000a81548173ffffffffffffffffffffffffffffffffffffffff021916908373ffffffffffffffffffffffffffffffffffffffff1602179055505050565b7ff63acc52fa4ad8a2695e14522f3df504db5c225cdd3d3a5acd3569b444572187610e4e81610fe5565b60006002600085815260200190815260200160002090506000816000015403610eac576040517f08c379a0000000000000000000000000000000000000000000000000000000008152600401610ea390611972565b60405180910390fd5b828160050160006101000a81548160ff02191690836004811115610ed357610ed26116a3565b5b021790555060026004811115610eec57610eeb6116a3565b5b836004811115610eff57610efe6116a3565b5b1480610f2e5750600480811115610f1957610f186116a3565b5b836004811115610f2c57610f2b6116a3565b5b145b15610f3d574281600701819055505b837f37dd038eef9398a895f8a99118d04d1fd1864770c92d81956cce6b9da7decdeb84604051610f6d9190611cce565b60405180910390a250505050565b60007f01ffc9a7000000000000000000000000000000000000000000000000000000007bffffffffffffffffffffffffffffffffffffffffffffffffffffffff1916827bffffffffffffffffffffffffffffffffffffffffffffffffffffffff1916149050919050565b610ff681610ff16110ea565b6111e4565b50565b600061100583836109f6565b6110df57600160008085815260200190815260200160002060000160008473ffffffffffffffffffffffffffffffffffffffff1673ffffffffffffffffffffffffffffffffffffffff16815260200190815260200160002060006101000a81548160ff02191690831515021790555061107c6110ea565b73ffffffffffffffffffffffffffffffffffffffff168273ffffffffffffffffffffffffffffffffffffffff16847f2f8788117e7eff1d82e926ec794901d17c78024a50270940304540a733656f0d60405160405180910390a4600190506110e4565b600090505b92915050565b600033905090565b60006110fe83836109f6565b156111d957600080600085815260200190815260200160002060000160008473ffffffffffffffffffffffffffffffffffffffff1673ffffffffffffffffffffffffffffffffffffffff16815260200190815260200160002060006101000a81548160ff0219169083151502179055506111766110ea565b73ffffffffffffffffffffffffffffffffffffffff168273ffffffffffffffffffffffffffffffffffffffff16847ff6391f5c32d9c69d2a47ea670b442974b53935d1edc7fd64eb21e047a839171b60405160405180910390a4600190506111de565b600090505b92915050565b6111ee82826109f6565b6112315780826040517fe2517d3f000000000000000000000000000000000000000000000000000000008152600401611228929190611ce9565b60405180910390fd5b5050565b600080fd5b600080fd5b60007fffffffff0000000000000000000000000000000000000000000000000000000082169050919050565b6112748161123f565b811461127f57600080fd5b50565b6000813590506112918161126b565b92915050565b6000602082840312156112ad576112ac611235565b5b60006112bb84828501611282565b91505092915050565b60008115159050919050565b6112d9816112c4565b82525050565b60006020820190506112f460008301846112d0565b92915050565b6000819050919050565b61130d816112fa565b811461131857600080fd5b50565b60008135905061132a81611304565b92915050565b60006020828403121561134657611345611235565b5b60006113548482850161131b565b91505092915050565b6000819050919050565b6113708161135d565b811461137b57600080fd5b50565b60008135905061138d81611367565b92915050565b6000602082840312156113a9576113a8611235565b5b60006113b78482850161137e565b91505092915050565b6113c98161135d565b82525050565b60006020820190506113e460008301846113c0565b92915050565b600073ffffffffffffffffffffffffffffffffffffffff82169050919050565b6000611415826113ea565b9050919050565b6114258161140a565b811461143057600080fd5b50565b6000813590506114428161141c565b92915050565b6000806040838503121561145f5761145e611235565b5b600061146d8582860161137e565b925050602061147e85828601611433565b9150509250929050565b6114918161140a565b82525050565b60006020820190506114ac6000830184611488565b92915050565b600080604083850312156114c9576114c8611235565b5b60006114d78582860161131b565b92505060206114e88582860161131b565b9150509250929050565b6114fb816112fa565b82525050565b600060208201905061151660008301846114f2565b92915050565b60006020828403121561153257611531611235565b5b600061154084828501611433565b91505092915050565b6000819050919050565b600061156e611569611564846113ea565b611549565b6113ea565b9050919050565b600061158082611553565b9050919050565b600061159282611575565b9050919050565b6115a281611587565b82525050565b60006020820190506115bd6000830184611599565b92915050565b600081519050919050565b600082825260208201905092915050565b6000819050602082019050919050565b6115f8816112fa565b82525050565b600061160a83836115ef565b60208301905092915050565b6000602082019050919050565b600061162e826115c3565b61163881856115ce565b9350611643836115df565b8060005b8381101561167457815161165b88826115fe565b975061166683611616565b925050600181019050611647565b5085935050505092915050565b6000602082019050818103600083015261169b8184611623565b905092915050565b7f4e487b7100000000000000000000000000000000000000000000000000000000600052602160045260246000fd5b600581106116e3576116e26116a3565b5b50565b60008190506116f4826116d2565b919050565b6000611704826116e6565b9050919050565b611714816116f9565b82525050565b600061010082019050611730600083018b6114f2565b61173d602083018a6114f2565b61174a6040830189611488565b61175760608301886113c0565b61176460808301876114f2565b61177160a083018661170b565b61177e60c08301856114f2565b61178b60e08301846114f2565b9998505050505050505050565b600080fd5b600080fd5b600080fd5b60008083601f8401126117bd576117bc611798565b5b8235905067ffffffffffffffff8111156117da576117d961179d565b5b6020830191508360018202830111156117f6576117f56117a2565b5b9250929050565b60008060006040848603121561181657611815611235565b5b60006118248682870161131b565b935050602084013567ffffffffffffffff8111156118455761184461123a565b5b611851868287016117a7565b92509250509250925092565b60008060006060848603121561187657611875611235565b5b60006118848682870161131b565b93505060206118958682870161137e565b92505060406118a68682870161131b565b9150509250925092565b600581106118bd57600080fd5b50565b6000813590506118cf816118b0565b92915050565b600080604083850312156118ec576118eb611235565b5b60006118fa8582860161131b565b925050602061190b858286016118c0565b9150509250929050565b600082825260208201905092915050565b7f436c61696d206e6f7420666f756e640000000000000000000000000000000000600082015250565b600061195c600f83611915565b915061196782611926565b602082019050919050565b6000602082019050818103600083015261198b8161194f565b9050919050565b7f436c61696d206e6f7420617070726f7665640000000000000000000000000000600082015250565b60006119c8601283611915565b91506119d382611992565b602082019050919050565b600060208201905081810360008301526119f7816119bb565b9050919050565b6000604082019050611a136000830185611488565b611a2060208301846114f2565b9392505050565b611a30816112c4565b8114611a3b57600080fd5b50565b600081519050611a4d81611a27565b92915050565b600060208284031215611a6957611a68611235565b5b6000611a7784828501611a3e565b91505092915050565b7f5061796f7574206661696c656400000000000000000000000000000000000000600082015250565b6000611ab6600d83611915565b9150611ac182611a80565b602082019050919050565b60006020820190508181036000830152611ae581611aa9565b9050919050565b6000604082019050611b0160008301856114f2565b611b0e6020830184611488565b9392505050565b6000819050919050565b611b30611b2b826112fa565b611b15565b82525050565b600081905092915050565b82818337600083830152505050565b6000611b5c8385611b36565b9350611b69838584611b41565b82840190509392505050565b6000611b818287611b1f565b602082019150611b918286611b1f565b602082019150611ba2828486611b50565b915081905095945050505050565b6000601f19601f8301169050919050565b6000611bcd8385611915565b9350611bda838584611b41565b611be383611bb0565b840190509392505050565b6000604082019050611c0360008301866113c0565b8181036020830152611c16818486611bc1565b9050949350505050565b7f4e487b7100000000000000000000000000000000000000000000000000000000600052601160045260246000fd5b6000611c5a826112fa565b91507fffffffffffffffffffffffffffffffffffffffffffffffffffffffffffffffff8203611c8c57611c8b611c20565b5b600182019050919050565b6000606082019050611cac60008301866113c0565b611cb960208301856114f2565b611cc660408301846114f2565b949350505050565b6000602082019050611ce3600083018461170b565b92915050565b6000604082019050611cfe6000830185611488565b611d0b60208301846113c0565b939250505056fea2646970667358221220060fcde7c60383655814a06cb1d5cb14271ed32ba881b3e9eb7bd4b84878005b64736f6c63430008180033",
  "linkReferences": {},
  "deployedLinkReferences": {}
}