{
  "_format": "hh-sol-artifact-1",
  "contractName": "ClaimRegistry",
  "sourceName": "contracts/ClaimRegistry.sol",
  "abi": [
    {
      "inputs": [
        {
          "internalType": "address",
          "name": "admin",
          "type": "address"
        },
        {
          "internalType": "address",
          "name": "oracleAddress",
          "type": "address"
        },
        {
          "internalType": "address",
          "name": "tokenAddress",
          "type": "address"
        }
      ],
      "stateMutability": "nonpayable",
      "type": "constructor"
    },
    {
      "inputs": [],
      "name": "AccessControlBadConfirmation",
      "type": "error"
    },
    {
      "inputs": [
        {
          "internalType": "address",
          "name": "account",
          "type": "address"
        },
        {
          "internalType": "bytes32",
          "name": "neededRole",
          "type": "bytes32"
        }
      ],
      "name": "AccessControlUnauthorizedAccount",
      "type": "error"
    },
    {
      "anonymous": false,
      "inputs": [
        {
          "indexed": true,
          "internalType": "uint256",
          "name": "claimId",
          "type": "uint256"
        },
        {
          "indexed": true,
          "internalType": "address",
          "name": "to",
          "type": "address"
        },
        {
          "indexed": false,
          "internalType": "uint256",
          "name": "amount",
          "type": "uint256"
        },
        {
          "indexed": false,
          "internalType": "address",
          "name": "token",
          "type": "address"
        }
      ],
      "name": "ClaimPayout",
      "type": "event"
    },
    {
      "anonymous": false,
      "inputs": [
        {
          "indexed": true,
          "internalType": "uint256",
          "name": "claimId",
          "type": "uint256"
        },
        {
          "indexed": false,
          "internalType": "enum ClaimRegistry.ClaimStatus",
          "name": "status",
          "type": "uint8"
        }
      ],
      "name": "ClaimStatusChanged",
      "type": "event"
    },
    {
      "anonymous": false,
      "inputs": [
        {
          "indexed": true,
          "internalType": "uint256",
          "name": "claimId",
          "type": "uint256"
        },
        {
          "indexed": true,
          "internalType": "uint256",
          "name": "policyId",
          "type": "uint256"
        },
        {
          "indexed": true,
          "internalType": "address",
          "name": "claimant",
          "type": "address"
        },
        {
          "indexed": false,
          "internalType": "bytes32",
          "name": "merkleRoot",
          "type": "bytes32"
        },
        {
          "indexed": false,
          "internalType": "uint256",
          "name": "amount",
          "type": "uint256"
        },
        {
          "indexed": false,
          "internalType": "uint256",
          "name": "timestamp",
          "type": "uint256"
        }
      ],
      "name": "ClaimSubmitted",
      "type": "event"
    },
    {
      "anonymous": false,
      "inputs": [
        {
          "indexed": true,
          "internalType": "bytes32",
          "name": "role",
          "type": "bytes32"
        },
        {
          "indexed": true,
          "internalType": "bytes32",
          "name": "previousAdminRole",
          "type": "bytes32"
        },
        {
          "indexed": true,
          "internalType": "bytes32",
          "name": "newAdminRole",
          "type": "bytes32"
        }
      ],
      "name": "RoleAdminChanged",
      "type": "event"
    },
    {
      "anonymous": false,
      "inputs": [
        {
          "indexed": true,
          "internalType": "bytes32",
          "name": "role",
          "type": "bytes32"
        },
        {
          "indexed": true,
          "internalType": "address",
          "name": "account",
          "type": "address"
        },
        {
          "indexed": true,
          "internalType": "address",
          "name": "sender",
          "type": "address"
        }
      ],
      "name": "RoleGranted",
      "type": "event"
    },
    {
      "anonymous": false,
      "inputs": [
        {
          "indexed": true,
          "internalType": "bytes32",
          "name": "role",
          "type": "bytes32"
        },
        {
          "indexed": true,
          "internalType": "address",
          "name": "account",
          "type": "address"
        },
        {
          "indexed": true,
          "internalType": "address",
          "name": "sender",
          "type": "address"
        }
      ],
      "name": "RoleRevoked",
      "type": "event"
    },
    {
      "inputs": [],
      "name": "ADMIN_ROLE",
      "outputs": [
        {
          "internalType": "bytes32",
          "name": "",
          "type": "bytes32"
        }
      ],
      "stateMutability": "view",
      "type": "function"
    },
    {
      "inputs": [],
      "name": "DEFAULT_ADMIN_ROLE",
      "outputs": [
        {
          "internalType": "bytes32",
          "name": "",
          "type": "bytes32"
        }
      ],
      "stateMutability": "view",
      "type": "function"
    },
    {
      "inputs": [],
      "name": "UNDERWRITER_ROLE",
      "outputs": [
        {
          "internalType": "bytes32",
          "name": "",
          "type": "bytes32"
        }
      ],
      "stateMutability": "view",
      "type": "function"
    },
    {
      "inputs": [
        {
          "internalType": "uint256",
          "name": "",
          "type": "uint256"
        }
      ],
      "name": "claims",
      "outputs": [
        {
          "internalType": "uint256",
          "name": "claimId",
          "type": "uint256"
        },
        {
          "internalType": "uint256",
          "name": "policyId",
          "type": "uint256"
        },
        {
          "internalType": "address",
          "name": "claimant",
          "type": "address"
        },
        {
          "internalType": "bytes32",
          "name": "merkleRoot",
          "type": "bytes32"
        },
        {
          "internalType": "uint256",
          "name": "amount",
          "type": "uint256"
        },
        {
          "internalType": "enum ClaimRegistry.ClaimStatus",
          "name": "status",
          "type": "uint8"
        },
        {
          "internalType": "uint256",
          "name": "submittedAt",
          "type": "uint256"
        },
        {
          "internalType": "uint256",
          "name": "processedAt",
          "type": "uint256"
        }
      ],
      "stateMutability": "view",
      "type": "function"
    },
    {
      "inputs": [
        {
          "internalType": "uint256",
          "name": "policyId",
          "type": "uint256"
        }
      ],
      "name": "getClaimsForPolicy",
      "outputs": [
        {
          "internalType": "uint256[]",
          "name": "",
          "type": "uint256[]"
        }
      ],
      "stateMutability": "view",
      "type": "function"
    },
    {
      "inputs": [
        {
          "internalType": "bytes32",
          "name": "role",
          "type": "bytes32"
        }
      ],
      "name": "getRoleAdmin",
      "outputs": [
        {
          "internalType": "bytes32",
          "name": "",
          "type": "bytes32"
        }
      ],
      "stateMutability": "view",
      "type": "function"
    },
    {
      "inputs": [
        {
          "internalType": "bytes32",
          "name": "role",
          "type": "bytes32"
        },
        {
          "internalType": "address",
          "name": "account",
          "type": "address"
        }
      ],
      "name": "grantRole",
      "outputs": [],
      "stateMutability": "nonpayable",
      "type": "function"
    },
    {
      "inputs": [
        {
          "internalType": "bytes32",
          "name": "role",
          "type": "bytes32"
        },
        {
          "internalType": "address",
          "name": "account",
          "type": "address"
        }
      ],
      "name": "hasRole",
      "outputs": [
        {
          "internalType": "bool",
          "name": "",
          "type": "bool"
        }
      ],
      "stateMutability": "view",
      "type": "function"
    },
    {
      "inputs": [],
      "name": "nextClaimId",
      "outputs": [
        {
          "internalType": "uint256",
          "name": "",
          "type": "uint256"
        }
      ],
      "stateMutability": "view",
      "type": "function"
    },
    {
      "inputs": [],
      "name": "oracle",
      "outputs": [
        {
          "internalType": "contract IOracle",
          "name": "",
          "type": "address"
        }
      ],
      "stateMutability": "view",
      "type": "function"
    },
    {
      "inputs": [
        {
          "internalType": "bytes32",
          "name": "",
          "type": "bytes32"
        }
      ],
      "name": "oracleRequests",
      "outputs": [
        {
          "internalType": "uint256",
          "name": "",
          "type": "uint256"
        }
      ],
      "stateMutability": "view",
      "type": "function"
    },
    {
      "inputs": [
        {
          "internalType": "uint256",
          "name": "claimId",
          "type": "uint256"
        }
      ],
      "name": "payoutClaim",
      "outputs": [],
      "stateMutability": "nonpayable",
      "type": "function"
    },
    {
      "inputs": [],
      "name": "payoutToken",
      "outputs": [
        {
          "internalType": "address",
          "name": "",
          "type": "address"
        }
      ],
      "stateMutability": "view",
      "type": "function"
    },
    {
      "inputs": [
        {
          "internalType": "uint256",
          "name": "",
          "type": "uint256"
        },
        {
          "internalType": "uint256",
          "name": "",
          "type": "uint256"
        }
      ],
      "name": "policyClaims",
      "outputs": [
        {
          "internalType": "uint256",
          "name": "",
          "type": "uint256"
        }
      ],
      "stateMutability": "view",
      "type": "function"
    },
    {
      "inputs": [
        {
          "internalType": "bytes32",
          "name": "role",
          "type": "bytes32"
        },
        {
          "internalType": "address",
          "name": "callerConfirmation",
          "type": "address"
        }
      ],
      "name": "renounceRole",
      "outputs": [],
      "stateMutability": "nonpayable",
      "type": "function"
    },
    {
      "inputs": [
        {
          "internalType": "uint256",
          "name": "claimId",
          "type": "uint256"
        },
        {
          "internalType": "string",
          "name": "endpoint",
          "type": "string"
        }
      ],
      "name": "requestOracleVerification",
      "outputs": [],
      "stateMutability": "nonpayable",
      "type": "function"
    },
    {
      "inputs": [
        {
          "internalType": "bytes32",
          "name": "role",
          "type": "bytes32"
        },
        {
          "internalType": "address",
          "name": "account",
          "type": "address"
        }
      ],
      "name": "revokeRole",
      "outputs": [],
      "stateMutability": "nonpayable",
      "type": "function"
    },
    {
      "inputs": [
        {
          "internalType": "uint256",
          "name": "claimId",
          "type": "uint256"
        },
        {
          "internalType": "enum ClaimRegistry.ClaimStatus",
          "name": "status",
          "type": "uint8"
        }
      ],
      "name": "setClaimStatus",
      "outputs": [],
      "stateMutability": "nonpayable",
      "type": "function"
    },
    {
      "inputs": [
        {
          "internalType": "address",
          "name": "oracleAddress",
          "type": "address"
        }
      ],
      "name": "setOracle",
      "outputs": [],
      "stateMutability": "nonpayable",
      "type": "function"
    },
    {
      "inputs": [
        {
          "internalType": "address",
          "name": "tokenAddress",
          "type": "address"
        }
      ],
      "name": "setPayoutToken",
      "outputs": [],
      "stateMutability": "nonpayable",
      "type": "function"
    },
    {
      "inputs": [
        {
          "internalType": "uint256",
          "name": "policyId",
          "type": "uint256"
        },
        {
          "internalType": "bytes32",
          "name": "merkleRoot",
          "type": "bytes32"
        },
        {
          "internalType": "uint256",
          "name": "amount",
          "type": "uint256"
        }
      ],
      "name": "submitClaim",
      "outputs": [
        {
          "internalType": "uint256",
          "name": "",
          "type": "uint256"
        }
      ],
      "stateMutability": "nonpayable",
      "type": "function"
    },
    {
      "inputs": [
        {
          "internalType": "bytes4",
          "name": "interfaceId",
          "type": "bytes4"
        }
      ],
      "name": "supportsInterface",
      "outputs": [
        {
          "internalType": "bool",
          "name": "",
          "type": "bool"
        }
      ],
      "stateMutability": "view",
      "type": "function"
    }
  ],
  "bytecode": "0x6080604052600180553480156200001557600080fd5b50604051620027b9380380620027b983398181016040528101906200003b9190620003b5565b6200005767720331e8eb0d641a60c01b620001d360201b60201c565b62000073676bbc2e571ef17cb160c01b620001d360201b60201c565b6200008f67519d6121c532134860c01b620001d360201b60201c565b620000a46000801b84620001d660201b60201c565b50620000c1675d0c4ef120881fe660c01b620001d360201b60201c565b620000dd670cfb2108757b95e160c01b620001d360201b60201c565b6200010f7fa49807205ce4d355092ef5a8a18f56e8913cf4a201fbe287825b095693c2177584620001d660201b60201c565b506200012c6753a32f1f93cfdc6260c01b620001d360201b60201c565b81600560006101000a81548173ffffffffffffffffffffffffffffffffffffffff021916908373ffffffffffffffffffffffffffffffffffffffff1602179055506200018967e114f8f8e666540f60c01b620001d360201b60201c565b80600660006101000a81548173ffffffffffffffffffffffffffffffffffffffff021916908373ffffffffffffffffffffffffffffffffffffffff16021790555050505062000411565b50565b6000620001ea8383620002d960201b60201c565b620002ce57600160008085815260200190815260200160002060000160008473ffffffffffffffffffffffffffffffffffffffff1673ffffffffffffffffffffffffffffffffffffffff16815260200190815260200160002060006101000a81548160ff0219169083151502179055506200026a6200034360201b60201c565b73ffffffffffffffffffffffffffffffffffffffff168273ffffffffffffffffffffffffffffffffffffffff16847f2f8788117e7eff1d82e926ec794901d17c78024a50270940304540a733656f0d60405160405180910390a460019050620002d3565b600090505b92915050565b600080600084815260200190815260200160002060000160008373ffffffffffffffffffffffffffffffffffffffff1673ffffffffffffffffffffffffffffffffffffffff16815260200190815260200160002060009054906101000a900460ff16905092915050565b600033905090565b600080fd5b600073ffffffffffffffffffffffffffffffffffffffff82169050919050565b60006200037d8262000350565b9050919050565b6200038f8162000370565b81146200039b57600080fd5b50565b600081519050620003af8162000384565b92915050565b600080600060608486031215620003d157620003d06200034b565b5b6000620003e1868287016200039e565b9350506020620003f4868287016200039e565b925050604062000407868287016200039e565b9150509250925092565b61239880620004216000396000f3fe608060405234801561001057600080fd5b50600436106101425760003560e01c806391d14854116100b8578063b817e6801161007c578063b817e680146103a4578063d547741f146103c0578063eaf1ffa1146103dc578063f01b571a1461040c578063f02ae48f1461042a578063f14e49ae1461044657610142565b806391d14854146102d1578063a0021cf114610301578063a217fddf1461031f578063a40afcf71461033d578063a888c2cd1461036d57610142565b80634efa82b61161010a5780634efa82b6146101fb578063560eb3941461021957806375b238fc146102495780637adbf973146102675780637dc0d1d014610283578063824ba25f146102a157610142565b806301ffc9a7146101475780630d13fa5a14610177578063248a9ca3146101935780632f2ff15d146101c357806336568abe146101df575b600080fd5b610161600480360381019061015c91906118e7565b610462565b60405161016e919061192f565b60405180910390f35b610191600480360381019061018c9190611980565b6104dc565b005b6101ad60048036038101906101a891906119e3565b61098b565b6040516101ba9190611a1f565b60405180910390f35b6101dd60048036038101906101d89190611a98565b6109aa565b005b6101f960048036038101906101f49190611a98565b6109cc565b005b610203610a47565b6040516102109190611ae7565b60405180910390f35b610233600480360381019061022e9190611b02565b610a6d565b6040516102409190611b51565b60405180910390f35b610251610a9e565b60405161025e9190611a1f565b60405180910390f35b610281600480360381019061027c9190611b6c565b610ac2565b005b61028b610b81565b6040516102989190611bf8565b60405180910390f35b6102bb60048036038101906102b69190611980565b610ba7565b6040516102c89190611cd1565b60405180910390f35b6102eb60048036038101906102e69190611a98565b610c4e565b6040516102f8919061192f565b60405180910390f35b610309610cb8565b6040516103169190611b51565b60405180910390f35b610327610cbe565b6040516103349190611a1f565b60405180910390f35b610357600480360381019061035291906119e3565b610cc5565b6040516103649190611b51565b60405180910390f35b61038760048036038101906103829190611980565b610cdd565b60405161039b989796959493929190611d6a565b60405180910390f35b6103be60048036038101906103b99190611e4d565b610d52565b005b6103da60048036038101906103d59190611a98565b610efd565b005b6103f660048036038101906103f19190611ead565b610f1f565b6040516104039190611b51565b60405180910390f35b6104146111f2565b6040516104219190611a1f565b60405180910390f35b610444600480360381019061043f9190611b6c565b611216565b005b610460600480360381019061045b9190611f25565b6112d5565b005b60007f7965db0b000000000000000000000000000000000000000000000000000000007bffffffffffffffffffffffffffffffffffffffffffffffffffffffff1916827bffffffffffffffffffffffffffffffffffffffffffffffffffffffff191614806104d557506104d4826115bd565b5b9050919050565b6104f0677a5ea81ed3772caa60c01b611627565b7ff63acc52fa4ad8a2695e14522f3df504db5c225cdd3d3a5acd3569b44457218761051a8161162a565b61052e67277b32e0069b1d4f60c01b611627565b610542676a3e2ebb341feca560c01b611627565b61055667bade83b74107f93c60c01b611627565b61056a6750b0818a5de50b0760c01b611627565b600060026000848152602001908152602001600020905061059567ba0f26638637702260c01b611627565b6105a967b8dd51701126809a60c01b611627565b6105bd67f6e5c9e45ed61e8d60c01b611627565b6000816000015403610604576040517f08c379a00000000000000000000000000000000000000000000000000000000081526004016105fb90611fc2565b60405180910390fd5b61061867937e3b69ffcb3f7f60c01b611627565b61062c6751686c980a615e9860c01b611627565b61064067faa23e6a6b1d271360c01b611627565b61065467dd7ca169c4a2a40860c01b611627565b6002600481111561066857610667611cf3565b5b8160050160009054906101000a900460ff16600481111561068c5761068b611cf3565b5b146106cc576040517f08c379a00000000000000000000000000000000000000000000000000000000081526004016106c39061202e565b60405180910390fd5b6106e067ed979a63d74ea0ca60c01b611627565b6106f467d5854f9be385289a60c01b611627565b60038160050160006101000a81548160ff0219169083600481111561071c5761071b611cf3565b5b0217905550610735677a006fe73a950f8560c01b611627565b4281600701819055506107526797c38a3fe51b1cd760c01b611627565b61076667d4788ba008b0707060c01b611627565b6000600660009054906101000a900473ffffffffffffffffffffffffffffffffffffffff1690506107a16789ad3a734859cb6b60c01b611627565b6107b567ac558e5bfeefec3c60c01b611627565b6107c967694b5bc7d23fb0d460c01b611627565b8073ffffffffffffffffffffffffffffffffffffffff1663a9059cbb8360020160009054906101000a900473ffffffffffffffffffffffffffffffffffffffff1684600401546040518363ffffffff1660e01b815260040161082c92919061204e565b6020604051808303816000875af115801561084b573d6000803e3d6000fd5b505050506040513d601f19601f8201168201806040525081019061086f91906120a3565b6108ae576040517f08c379a00000000000000000000000000000000000000000000000000000000081526004016108a59061211c565b60405180910390fd5b6108c2679bef8cc76c5cade960c01b611627565b6108d6670f86d58b3cef36a460c01b611627565b6108ea67bb29954acf8ca05460c01b611627565b8160020160009054906101000a900473ffffffffffffffffffffffffffffffffffffffff1673ffffffffffffffffffffffffffffffffffffffff16847fed66290a5b1fd35e6dbcd77ba3c05ebc0f3784d7725eb49cacfd8413c78fa1658460040154600660009054906101000a900473ffffffffffffffffffffffffffffffffffffffff1660405161097d92919061213c565b60405180910390a350505050565b6000806000838152602001908152602001600020600101549050919050565b6109b38261098b565b6109bc8161162a565b6109c6838361163e565b50505050565b6109d461172f565b73ffffffffffffffffffffffffffffffffffffffff168173ffffffffffffffffffffffffffffffffffffffff1614610a38576040517f6697b23200000000000000000000000000000000000000000000000000000000815260040160405180910390fd5b610a428282611737565b505050565b600660009054906101000a900473ffffffffffffffffffffffffffffffffffffffff1681565b60036020528160005260406000208181548110610a8957600080fd5b90600052602060002001600091509150505481565b7fa49807205ce4d355092ef5a8a18f56e8913cf4a201fbe287825b095693c2177581565b610ad6672a465d488e8bfb5560c01b611627565b7fa49807205ce4d355092ef5a8a18f56e8913cf4a201fbe287825b095693c21775610b008161162a565b610b14679d3c5103779d622260c01b611627565b610b2867e750df79917e18ba60c01b611627565b610b3c6733f29dec5d06c18560c01b611627565b81600560006101000a81548173ffffffffffffffffffffffffffffffffffffffff021916908373ffffffffffffffffffffffffffffffffffffffff1602179055505050565b600560009054906101000a900473ffffffffffffffffffffffffffffffffffffffff1681565b6060610bbd67d74dfea1d3147a0660c01b611627565b610bd16768dc3fb7b6c5d7bd60c01b611627565b610be567513a555438b0049360c01b611627565b60036000838152602001908152602001600020805480602002602001604051908101604052809291908181526020018280548015610c4257602002820191906000526020600020905b815481526020019060010190808311610c2e575b50505050509050919050565b600080600084815260200190815260200160002060000160008373ffffffffffffffffffffffffffffffffffffffff1673ffffffffffffffffffffffffffffffffffffffff16815260200190815260200160002060009054906101000a900460ff16905092915050565b60015481565b6000801b81565b60046020528060005260406000206000915090505481565b60026020528060005260406000206000915090508060000154908060010154908060020160009054906101000a900473ffffffffffffffffffffffffffffffffffffffff16908060030154908060040154908060050160009054906101000a900460ff16908060060154908060070154905088565b610d66670f5cbd8e30f7652260c01b611627565b7fa49807205ce4d355092ef5a8a18f56e8913cf4a201fbe287825b095693c21775610d908161162a565b610da467e5deb34c45d0465460c01b611627565b610db867f4bca9ea038b28da60c01b611627565b610dcc67f147b0822448f84560c01b611627565b610de067907cb351842aa34560c01b611627565b600042858585604051602001610df994939291906121c5565b604051602081830303815290604052805190602001209050610e2567ebb318c2cc072ba760c01b611627565b846004600083815260200190815260200160002081905550610e51677d3a3281e762172460c01b611627565b610e6567c669a60262e0778b60c01b611627565b600560009054906101000a900473ffffffffffffffffffffffffffffffffffffffff1673ffffffffffffffffffffffffffffffffffffffff1663cc8d01d88286866040518463ffffffff1660e01b8152600401610ec49392919061223e565b600060405180830381600087803b158015610ede57600080fd5b505af1158015610ef2573d6000803e3d6000fd5b505050505050505050565b610f068261098b565b610f0f8161162a565b610f198383611737565b50505050565b6000610f356733be41528a2c30ae60c01b611627565b610f4967835de3fbf0da22dd60c01b611627565b610f5d67216f502d9248d6ea60c01b611627565b600060016000815480929190610f729061229f565b919050559050610f8c67d467cd66512f62b560c01b611627565b610fa067408813d52797b54260c01b611627565b6000600260008381526020019081526020016000209050610fcb679376d2646814333160c01b611627565b818160000181905550610fe867656feb2fe02f725860c01b611627565b85816001018190555061100567aff41bd248b5c4e560c01b611627565b338160020160006101000a81548173ffffffffffffffffffffffffffffffffffffffff021916908373ffffffffffffffffffffffffffffffffffffffff16021790555061105c677fe31c9085ff18e860c01b611627565b84816003018190555061107967891336fd2c1ff7a760c01b611627565b838160040181905550611096677d178af381a2a5b660c01b611627565b60008160050160006101000a81548160ff021916908360048111156110be576110bd611cf3565b5b02179055506110d7676e14ddcc4fc91c9560c01b611627565b4281600601819055506110f4677a4e4caca855b5df60c01b611627565b61110867ee4d9ea49e06e06060c01b611627565b600360008781526020019081526020016000208290806001815401808255809150506001900390600052602060002001600090919091909150556111566702b9404cb185528260c01b611627565b61116a671c0822c69c72fee960c01b611627565b3373ffffffffffffffffffffffffffffffffffffffff1686837f8997214facc23d5c556bbddb41a7ae8eec635718bae39dd6aa3ee40876dd69308888426040516111b6939291906122e7565b60405180910390a46111d267cf1f1571157cc40060c01b611627565b6111e6674aed7b9a63d84a0860c01b611627565b81925050509392505050565b7ff63acc52fa4ad8a2695e14522f3df504db5c225cdd3d3a5acd3569b44457218781565b61122a67fd22dca38d1d177e60c01b611627565b7fa49807205ce4d355092ef5a8a18f56e8913cf4a201fbe287825b095693c217756112548161162a565b611268675c2d7ae6d054d7fd60c01b611627565b61127c67d7e711e0d6fca2aa60c01b611627565b611290678312033887aaff3f60c01b611627565b81600660006101000a81548173ffffffffffffffffffffffffffffffffffffffff021916908373ffffffffffffffffffffffffffffffffffffffff1602179055505050565b6112e96773a04727b31c824260c01b611627565b7ff63acc52fa4ad8a2695e14522f3df504db5c225cdd3d3a5acd3569b4445721876113138161162a565b611327671ecb45747a13433860c01b611627565b61133b67af33351f9bf7aa1060c01b611627565b61134f6762c17e1f2c40761e60c01b611627565b611363674d4230298b4bb81c60c01b611627565b600060026000858152602001908152602001600020905061138e67a887c19c05f71c9960c01b611627565b6113a267eec26421c1068bf960c01b611627565b6113b6671822ef89d9a2aa1560c01b611627565b60008160000154036113fd576040517f08c379a00000000000000000000000000000000000000000000000000000000081526004016113f490611fc2565b60405180910390fd5b61141167dfb35f99dce3310e60c01b611627565b61142567aeaffcf30245b5a160c01b611627565b828160050160006101000a81548160ff0219169083600481111561144c5761144b611cf3565b5b02179055506114656729a8e05cb89a610760c01b611627565b6114796793957a8dfb2ea74d60c01b611627565b6002600481111561148d5761148c611cf3565b5b8360048111156114a05761149f611cf3565b5b1480156114bd57506114bc67b33ed85ec902a99a60c01b611829565b5b8061150757506004808111156114d6576114d5611cf3565b5b8360048111156114e9576114e8611cf3565b5b148015611506575061150567a2d0f18c2047258460c01b611829565b5b5b15611542576115206774298ec5e9a939ce60c01b611627565b61153467680a7edee23f9fb760c01b611627565b428160070181905550611557565b61155667e9d00862a7047c5e60c01b611627565b5b61156b67b3353639c5a075fa60c01b611627565b61157f67678aa189e87f8e0760c01b611627565b837f37dd038eef9398a895f8a99118d04d1fd1864770c92d81956cce6b9da7decdeb846040516115af919061231e565b60405180910390a250505050565b60007f01ffc9a7000000000000000000000000000000000000000000000000000000007bffffffffffffffffffffffffffffffffffffffffffffffffffffffff1916827bffffffffffffffffffffffffffffffffffffffffffffffffffffffff1916149050919050565b50565b61163b8161163661172f565b611834565b50565b600061164a8383610c4e565b61172457600160008085815260200190815260200160002060000160008473ffffffffffffffffffffffffffffffffffffffff1673ffffffffffffffffffffffffffffffffffffffff16815260200190815260200160002060006101000a81548160ff0219169083151502179055506116c161172f565b73ffffffffffffffffffffffffffffffffffffffff168273ffffffffffffffffffffffffffffffffffffffff16847f2f8788117e7eff1d82e926ec794901d17c78024a50270940304540a733656f0d60405160405180910390a460019050611729565b600090505b92915050565b600033905090565b60006117438383610c4e565b1561181e57600080600085815260200190815260200160002060000160008473ffffffffffffffffffffffffffffffffffffffff1673ffffffffffffffffffffffffffffffffffffffff16815260200190815260200160002060006101000a81548160ff0219169083151502179055506117bb61172f565b73ffffffffffffffffffffffffffffffffffffffff168273ffffffffffffffffffffffffffffffffffffffff16847ff6391f5c32d9c69d2a47ea670b442974b53935d1edc7fd64eb21e047a839171b60405160405180910390a460019050611823565b600090505b92915050565b600060019050919050565b61183e8282610c4e565b6118815780826040517fe2517d3f000000000000000000000000000000000000000000000000000000008152600401611878929190612339565b60405180910390fd5b5050565b600080fd5b600080fd5b60007fffffffff0000000000000000000000000000000000000000000000000000000082169050919050565b6118c48161188f565b81146118cf57600080fd5b50565b6000813590506118e1816118bb565b92915050565b6000602082840312156118fd576118fc611885565b5b600061190b848285016118d2565b91505092915050565b60008115159050919050565b61192981611914565b82525050565b60006020820190506119446000830184611920565b92915050565b6000819050919050565b61195d8161194a565b811461196857600080fd5b50565b60008135905061197a81611954565b92915050565b60006020828403121561199657611995611885565b5b60006119a48482850161196b565b91505092915050565b6000819050919050565b6119c0816119ad565b81146119cb57600080fd5b50565b6000813590506119dd816119b7565b92915050565b6000602082840312156119f9576119f8611885565b5b6000611a07848285016119ce565b91505092915050565b611a19816119ad565b82525050565b6000602082019050611a346000830184611a10565b92915050565b600073ffffffffffffffffffffffffffffffffffffffff82169050919050565b6000611a6582611a3a565b9050919050565b611a7581611a5a565b8114611a8057600080fd5b50565b600081359050611a9281611a6c565b92915050565b60008060408385031215611aaf57611aae611885565b5b6000611abd858286016119ce565b9250506020611ace85828601611a83565b9150509250929050565b611ae181611a5a565b82525050565b6000602082019050611afc6000830184611ad8565b92915050565b60008060408385031215611b1957611b18611885565b5b6000611b278582860161196b565b9250506020611b388582860161196b565b9150509250929050565b611b4b8161194a565b82525050565b6000602082019050611b666000830184611b42565b92915050565b600060208284031215611b8257611b81611885565b5b6000611b9084828501611a83565b91505092915050565b6000819050919050565b6000611bbe611bb9611bb484611a3a565b611b99565b611a3a565b9050919050565b6000611bd082611ba3565b9050919050565b6000611be282611bc5565b9050919050565b611bf281611bd7565b82525050565b6000602082019050611c0d6000830184611be9565b92915050565b600081519050919050565b600082825260208201905092915050565b6000819050602082019050919050565b611c488161194a565b82525050565b6000611c5a8383611c3f565b60208301905092915050565b6000602082019050919050565b6000611c7e82611c13565b611c888185611c1e565b9350611c9383611c2f565b8060005b83811015611cc4578151611cab8882611c4e565b9750611cb683611c66565b925050600181019050611c97565b5085935050505092915050565b60006020820190508181036000830152611ceb8184611c73565b905092915050565b7f4e487b7100000000000000000000000000000000000000000000000000000000600052602160045260246000fd5b60058110611d3357611d32611cf3565b5b50565b6000819050611d4482611d22565b919050565b6000611d5482611d36565b9050919050565b611d6481611d49565b82525050565b600061010082019050611d80600083018b611b42565b611d8d602083018a611b42565b611d9a6040830189611ad8565b611da76060830188611a10565b611db46080830187611b42565b611dc160a0830186611d5b565b611dce60c0830185611b42565b611ddb60e0830184611b42565b9998505050505050505050565b600080fd5b600080fd5b600080fd5b60008083601f840112611e0d57611e0c611de8565b5b8235905067ffffffffffffffff811115611e2a57611e29611ded565b5b602083019150836001820283011115611e4657611e45611df2565b5b9250929050565b600080600060408486031215611e6657611e65611885565b5b6000611e748682870161196b565b935050602084013567ffffffffffffffff811115611e9557611e9461188a565b5b611ea186828701611df7565b92509250509250925092565b600080600060608486031215611ec657611ec5611885565b5b6000611ed48682870161196b565b9350506020611ee5868287016119ce565b9250506040611ef68682870161196b565b9150509250925092565b60058110611f0d57600080fd5b50565b600081359050611f1f81611f00565b92915050565b60008060408385031215611f3c57611f3b611885565b5b6000611f4a8582860161196b565b9250506020611f5b85828601611f10565b9150509250929050565b600082825260208201905092915050565b7f436c61696d206e6f7420666f756e640000000000000000000000000000000000600082015250565b6000611fac600f83611f65565b9150611fb782611f76565b602082019050919050565b60006020820190508181036000830152611fdb81611f9f565b9050919050565b7f436c61696d206e6f7420617070726f7665640000000000000000000000000000600082015250565b6000612018601283611f65565b915061202382611fe2565b602082019050919050565b600060208201905081810360008301526120478161200b565b9050919050565b60006040820190506120636000830185611ad8565b6120706020830184611b42565b9392505050565b61208081611914565b811461208b57600080fd5b50565b60008151905061209d81612077565b92915050565b6000602082840312156120b9576120b8611885565b5b60006120c78482850161208e565b91505092915050565b7f5061796f7574206661696c656400000000000000000000000000000000000000600082015250565b6000612106600d83611f65565b9150612111826120d0565b602082019050919050565b60006020820190508181036000830152612135816120f9565b9050919050565b60006040820190506121516000830185611b42565b61215e6020830184611ad8565b9392505050565b6000819050919050565b61218061217b8261194a565b612165565b82525050565b600081905092915050565b82818337600083830152505050565b60006121ac8385612186565b93506121b9838584612191565b82840190509392505050565b60006121d1828761216f565b6020820191506121e1828661216f565b6020820191506121f28284866121a0565b915081905095945050505050565b6000601f19601f8301169050919050565b600061221d8385611f65565b935061222a838584612191565b61223383612200565b840190509392505050565b60006040820190506122536000830186611a10565b8181036020830152612266818486612211565b9050949350505050565b7f4e487b7100000000000000000000000000000000000000000000000000000000600052601160045260246000fd5b60006122aa8261194a565b91507fffffffffffffffffffffffffffffffffffffffffffffffffffffffffffffffff82036122dc576122db612270565b5b600182019050919050565b60006060820190506122fc6000830186611a10565b6123096020830185611b42565b6123166040830184611b42565b949350505050565b60006020820190506123336000830184611d5b565b92915050565b600060408201905061234e6000830185611ad8565b61235b6020830184611a10565b939250505056fea264697066735822122033dd179f4bae36eabedc5c001d2bb0671edbd681fa145eb883868682cabb84ea64736f6c63430008180033",
  "linkReferences": {},
  "deployedLinkReferences": {}
}