{
  "_format": "hh-sol-artifact-1",
  "contractName": "InsurancePolicy",
  "sourceName": "contracts/InsurancePolicy.sol",
  "abi": [
    {
      "inputs": [
        {
          "internalType": "address",
          "name": "admin",
          "type": "address"
        }
      ],
      "stateMutability": "nonpayable",
      "type": "constructor"
    },
    {
      "inputs": [],
      "name": "AccessControlBadConfirmation",
      "type": "error"
    },
    {
      "inputs": [
        {
          "internalType": "address",
          "name": "account",
          "type": "address"
        },
        {
          "internalType": "bytes32",
          "name": "neededRole",
          "type": "bytes32"
        }
      ],
      "name": "AccessControlUnauthorizedAccount",
      "type": "error"
    },
    {
      "anonymous": false,
      "inputs": [
        {
          "indexed": true,
          "internalType": "uint256",
          "name": "policyId",
          "type": "uint256"
        },
        {
          "indexed": true,
          "internalType": "address",
          "name": "holder",
          "type": "address"
        },
        {
          "indexed": false,
          "internalType": "uint256",
          "name": "validFrom",
          "type": "uint256"
        },
        {
          "indexed": false,
          "internalType": "uint256",
          "name": "validUntil",
          "type": "uint256"
        },
        {
          "indexed": false,
          "internalType": "string",
          "name": "meta",
          "type": "string"
        }
      ],
      "name": "PolicyRegistered",
      "type": "event"
    },
    {
      "anonymous": false,
      "inputs": [
        {
          "indexed": true,
          "internalType": "bytes32",
          "name": "role",
          "type": "bytes32"
        },
        {
          "indexed": true,
          "internalType": "bytes32",
          "name": "previousAdminRole",
          "type": "bytes32"
        },
        {
          "indexed": true,
          "internalType": "bytes32",
          "name": "newAdminRole",
          "type": "bytes32"
        }
      ],
      "name": "RoleAdminChanged",
      "type": "event"
    },
    {
      "anonymous": false,
      "inputs": [
        {
          "indexed": true,
          "internalType": "bytes32",
          "name": "role",
          "type": "bytes32"
        },
        {
          "indexed": true,
          "internalType": "address",
          "name": "account",
          "type": "address"
        },
        {
          "indexed": true,
          "internalType": "address",
          "name": "sender",
          "type": "address"
        }
      ],
      "name": "RoleGranted",
      "type": "event"
    },
    {
      "anonymous": false,
      "inputs": [
        {
          "indexed": true,
          "internalType": "bytes32",
          "name": "role",
          "type": "bytes32"
        },
        {
          "indexed": true,
          "internalType": "address",
          "name": "account",
          "type": "address"
        },
        {
          "indexed": true,
          "internalType": "address",
          "name": "sender",
          "type": "address"
        }
      ],
      "name": "RoleRevoked",
      "type": "event"
    },
    {
      "inputs": [],
      "name": "ADMIN_ROLE",
      "outputs": [
        {
          "internalType": "bytes32",
          "name": "",
          "type": "bytes32"
        }
      ],
      "stateMutability": "view",
      "type": "function"
    },
    {
      "inputs": [],
      "name": "DEFAULT_ADMIN_ROLE",
      "outputs": [
        {
          "internalType": "bytes32",
          "name": "",
          "type": "bytes32"
        }
      ],
      "stateMutability": "view",
      "type": "function"
    },
    {
      "inputs": [
        {
          "internalType": "uint256",
          "name": "policyId",
          "type": "uint256"
        }
      ],
      "name": "getPolicy",
      "outputs": [
        {
          "components": [
            {
              "internalType": "uint256",
              "name": "policyId",
              "type": "uint256"
            },
            {
              "internalType": "address",
              "name": "holder",
              "type": "address"
            },
            {
              "internalType": "uint256",
              "name": "validFrom",
              "type": "uint256"
            },
            {
              "internalType": "uint256",
              "name": "validUntil",
              "type": "uint256"
            },
            {
              "internalType": "string",
              "name": "meta",
              "type": "string"
            }
          ],
          "internalType": "struct InsurancePolicy.Policy",
          "name": "",
          "type": "tuple"
        }
      ],
      "stateMutability": "view",
      "type": "function"
    },
    {
      "inputs": [
        {
          "internalType": "bytes32",
          "name": "role",
          "type": "bytes32"
        }
      ],
      "name": "getRoleAdmin",
      "outputs": [
        {
          "internalType": "bytes32",
          "name": "",
          "type": "bytes32"
        }
      ],
      "stateMutability": "view",
      "type": "function"
    },
    {
      "inputs": [
        {
          "internalType": "bytes32",
          "name": "role",
          "type": "bytes32"
        },
        {
          "internalType": "address",
          "name": "account",
          "type": "address"
        }
      ],
      "name": "grantRole",
      "outputs": [],
      "stateMutability": "nonpayable",
      "type": "function"
    },
    {
      "inputs": [
        {
          "internalType": "bytes32",
          "name": "role",
          "type": "bytes32"
        },
        {
          "internalType": "address",
          "name": "account",
          "type": "address"
        }
      ],
      "name": "hasRole",
      "outputs": [
        {
          "internalType": "bool",
          "name": "",
          "type": "bool"
        }
      ],
      "stateMutability": "view",
      "type": "function"
    },
    {
      "inputs": [
        {
          "internalType": "uint256",
          "name": "policyId",
          "type": "uint256"
        },
        {
          "internalType": "uint256",
          "name": "atTime",
          "type": "uint256"
        }
      ],
      "name": "isPolicyActive",
      "outputs": [
        {
          "internalType": "bool",
          "name": "",
          "type": "bool"
        }
      ],
      "stateMutability": "view",
      "type": "function"
    },
    {
      "inputs": [
        {
          "internalType": "uint256",
          "name": "policyId",
          "type": "uint256"
        },
        {
          "internalType": "address",
          "name": "holder",
          "type": "address"
        },
        {
          "internalType": "uint256",
          "name": "validFrom",
          "type": "uint256"
        },
        {
          "internalType": "uint256",
          "name": "validUntil",
          "type": "uint256"
        },
        {
          "internalType": "string",
          "name": "meta",
          "type": "string"
        }
      ],
      "name": "registerPolicy",
      "outputs": [],
      "stateMutability": "nonpayable",
      "type": "function"
    },
    {
      "inputs": [
        {
          "internalType": "bytes32",
          "name": "role",
          "type": "bytes32"
        },
        {
          "internalType": "address",
          "name": "callerConfirmation",
          "type": "address"
        }
      ],
      "name": "renounceRole",
      "outputs": [],
      "stateMutability": "nonpayable",
      "type": "function"
    },
    {
      "inputs": [
        {
          "internalType": "bytes32",
          "name": "role",
          "type": "bytes32"
        },
        {
          "internalType": "address",
          "name": "account",
          "type": "address"
        }
      ],
      "name": "revokeRole",
      "outputs": [],
      "stateMutability": "nonpayable",
      "type": "function"
    },
    {
      "inputs": [
        {
          "internalType": "bytes4",
          "name": "interfaceId",
          "type": "bytes4"
        }
      ],
      "name": "supportsInterface",
      "outputs": [
        {
          "internalType": "bool",
          "name": "",
          "type": "bool"
        }
      ],
      "stateMutability": "view",
      "type": "function"
    }
  ],
  "bytecode": "0x60806040523480156200001157600080fd5b5060405162001cc638038062001cc68339818101604052810190620000379190620002f5565b62000053674e5b89061b729f2b60c01b6200011360201b60201c565b6200006f677de06796bf6685b160c01b6200011360201b60201c565b6200008b6713142a9efc59480360c01b6200011360201b60201c565b620000a06000801b826200011660201b60201c565b50620000bd67e4740468b157add360c01b6200011360201b60201c565b620000d9672947443a600b4c3c60c01b6200011360201b60201c565b6200010b7fa49807205ce4d355092ef5a8a18f56e8913cf4a201fbe287825b095693c21775826200011660201b60201c565b505062000327565b50565b60006200012a83836200021960201b60201c565b6200020e57600160008085815260200190815260200160002060000160008473ffffffffffffffffffffffffffffffffffffffff1673ffffffffffffffffffffffffffffffffffffffff16815260200190815260200160002060006101000a81548160ff021916908315150217905550620001aa6200028360201b60201c565b73ffffffffffffffffffffffffffffffffffffffff168273ffffffffffffffffffffffffffffffffffffffff16847f2f8788117e7eff1d82e926ec794901d17c78024a50270940304540a733656f0d60405160405180910390a46001905062000213565b600090505b92915050565b600080600084815260200190815260200160002060000160008373ffffffffffffffffffffffffffffffffffffffff1673ffffffffffffffffffffffffffffffffffffffff16815260200190815260200160002060009054906101000a900460ff16905092915050565b600033905090565b600080fd5b600073ffffffffffffffffffffffffffffffffffffffff82169050919050565b6000620002bd8262000290565b9050919050565b620002cf81620002b0565b8114620002db57600080fd5b50565b600081519050620002ef81620002c4565b92915050565b6000602082840312156200030e576200030d6200028b565b5b60006200031e84828501620002de565b91505092915050565b61198f80620003376000396000f3fe608060405234801561001057600080fd5b50600436106100a95760003560e01c806336568abe1161007157806336568abe1461017657806375b238fc1461019257806391d14854146101b0578063a217fddf146101e0578063ce7e0237146101fe578063d547741f1461022e576100a9565b806301ffc9a7146100ae5780631f951c6c146100de578063248a9ca3146100fa5780632b07fce31461012a5780632f2ff15d1461015a575b600080fd5b6100c860048036038101906100c39190610fbe565b61024a565b6040516100d59190611006565b60405180910390f35b6100f860048036038101906100f3919061111a565b6102c4565b005b610114600480360381019061010f91906111ea565b610686565b6040516101219190611226565b60405180910390f35b610144600480360381019061013f9190611241565b6106a5565b6040516101519190611392565b60405180910390f35b610174600480360381019061016f91906113b4565b6108c4565b005b610190600480360381019061018b91906113b4565b6108e6565b005b61019a610961565b6040516101a79190611226565b60405180910390f35b6101ca60048036038101906101c591906113b4565b610985565b6040516101d79190611006565b60405180910390f35b6101e86109ef565b6040516101f59190611226565b60405180910390f35b610218600480360381019061021391906113f4565b6109f6565b6040516102259190611006565b60405180910390f35b610248600480360381019061024391906113b4565b610c38565b005b60007f7965db0b000000000000000000000000000000000000000000000000000000007bffffffffffffffffffffffffffffffffffffffffffffffffffffffff1916827bffffffffffffffffffffffffffffffffffffffffffffffffffffffff191614806102bd57506102bc82610c5a565b5b9050919050565b6102d86785c337d3ab1a173160c01b610cc4565b7fa49807205ce4d355092ef5a8a18f56e8913cf4a201fbe287825b095693c2177561030281610cc7565b6103166732e4a1f2413f740660c01b610cc4565b61032a6798652e40f1c819fd60c01b610cc4565b61033e67cebbd00076603c9360c01b610cc4565b61035267f977a4f167003b9f60c01b610cc4565b61036667e753990d6b3ce1f560c01b610cc4565b6002600088815260200190815260200160002060009054906101000a900460ff16156103c7576040517f08c379a00000000000000000000000000000000000000000000000000000000081526004016103be90611491565b60405180910390fd5b6103db6769c18883b6c40e1660c01b610cc4565b6103ef673e89389316eea04460c01b610cc4565b61040367463100906d42939360c01b610cc4565b61041767f24dcf69a7edf6ea60c01b610cc4565b600073ffffffffffffffffffffffffffffffffffffffff168673ffffffffffffffffffffffffffffffffffffffff1603610486576040517f08c379a000000000000000000000000000000000000000000000000000000000815260040161047d906114fd565b60405180910390fd5b61049a67cefb306f3841f05a60c01b610cc4565b6104ae67c4d753958035ffa160c01b610cc4565b6040518060a001604052808881526020018773ffffffffffffffffffffffffffffffffffffffff16815260200186815260200185815260200184848080601f016020809104026020016040519081016040528093929190818152602001838380828437600081840152601f19601f82011690508083019250505050505050815250600160008981526020019081526020016000206000820151816000015560208201518160010160006101000a81548173ffffffffffffffffffffffffffffffffffffffff021916908373ffffffffffffffffffffffffffffffffffffffff160217905550604082015181600201556060820151816003015560808201518160040190816105bc9190611758565b509050506105d467e9540d4d6282c9c460c01b610cc4565b60016002600089815260200190815260200160002060006101000a81548160ff021916908315150217905550610614672781fb128ea30ea260c01b610cc4565b610628672aec383ed34f4f3c60c01b610cc4565b8573ffffffffffffffffffffffffffffffffffffffff16877f61015659322e821e2b2d178f34d42c6f55fe65edd0fcd1039f25f431f80cea84878787876040516106759493929190611875565b60405180910390a350505050505050565b6000806000838152602001908152602001600020600101549050919050565b6106ad610f17565b6106c167e7872a61a6818e3f60c01b610cc4565b6106d567d158da7a4f148c8360c01b610cc4565b6106e967821d4551ef3c430760c01b610cc4565b6106fd67eb753daefd93b80460c01b610cc4565b6002600083815260200190815260200160002060009054906101000a900460ff1661075d576040517f08c379a000000000000000000000000000000000000000000000000000000000815260040161075490611901565b60405180910390fd5b61077167e1e5b4799bcbcbac60c01b610cc4565b61078567d6e954550b0045a560c01b610cc4565b610799670ba7d5beec3dda4460c01b610cc4565b600160008381526020019081526020016000206040518060a0016040529081600082015481526020016001820160009054906101000a900473ffffffffffffffffffffffffffffffffffffffff1673ffffffffffffffffffffffffffffffffffffffff1673ffffffffffffffffffffffffffffffffffffffff168152602001600282015481526020016003820154815260200160048201805461083b9061157b565b80601f01602080910402602001604051908101604052809291908181526020018280546108679061157b565b80156108b45780601f10610889576101008083540402835291602001916108b4565b820191906000526020600020905b81548152906001019060200180831161089757829003601f168201915b5050505050815250509050919050565b6108cd82610686565b6108d681610cc7565b6108e08383610cdb565b50505050565b6108ee610dcc565b73ffffffffffffffffffffffffffffffffffffffff168173ffffffffffffffffffffffffffffffffffffffff1614610952576040517f6697b23200000000000000000000000000000000000000000000000000000000815260040160405180910390fd5b61095c8282610dd4565b505050565b7fa49807205ce4d355092ef5a8a18f56e8913cf4a201fbe287825b095693c2177581565b600080600084815260200190815260200160002060000160008373ffffffffffffffffffffffffffffffffffffffff1673ffffffffffffffffffffffffffffffffffffffff16815260200190815260200160002060009054906101000a900460ff16905092915050565b6000801b81565b6000610a0c6758aa8fd34ee06b5f60c01b610cc4565b610a2067a3375b33820ef3f160c01b610cc4565b610a346714145d8c6f944c4560c01b610cc4565b6002600084815260200190815260200160002060009054906101000a900460ff16610a8a57610a6d67c55552807fba6ccf60c01b610cc4565b610a81677db64ee8386d6ef060c01b610cc4565b60009050610c32565b610a9e677dedac6c211c0d2260c01b610cc4565b610ab26751426e5f64accd2160c01b610cc4565b610ac6670d47c6c2829ab95a60c01b610cc4565b6000600160008581526020019081526020016000206040518060a0016040529081600082015481526020016001820160009054906101000a900473ffffffffffffffffffffffffffffffffffffffff1673ffffffffffffffffffffffffffffffffffffffff1673ffffffffffffffffffffffffffffffffffffffff1681526020016002820154815260200160038201548152602001600482018054610b6a9061157b565b80601f0160208091040260200160405190810160405280929190818152602001828054610b969061157b565b8015610be35780601f10610bb857610100808354040283529160200191610be3565b820191906000526020600020905b815481529060010190602001808311610bc657829003601f168201915b5050505050815250509050610c026707fd46028643202160c01b610cc4565b610c1667175624795ffb619360c01b610cc4565b80604001518310158015610c2e575080606001518311155b9150505b92915050565b610c4182610686565b610c4a81610cc7565b610c548383610dd4565b50505050565b60007f01ffc9a7000000000000000000000000000000000000000000000000000000007bffffffffffffffffffffffffffffffffffffffffffffffffffffffff1916827bffffffffffffffffffffffffffffffffffffffffffffffffffffffff1916149050919050565b50565b610cd881610cd3610dcc565b610ec6565b50565b6000610ce78383610985565b610dc157600160008085815260200190815260200160002060000160008473ffffffffffffffffffffffffffffffffffffffff1673ffffffffffffffffffffffffffffffffffffffff16815260200190815260200160002060006101000a81548160ff021916908315150217905550610d5e610dcc565b73ffffffffffffffffffffffffffffffffffffffff168273ffffffffffffffffffffffffffffffffffffffff16847f2f8788117e7eff1d82e926ec794901d17c78024a50270940304540a733656f0d60405160405180910390a460019050610dc6565b600090505b92915050565b600033905090565b6000610de08383610985565b15610ebb57600080600085815260200190815260200160002060000160008473ffffffffffffffffffffffffffffffffffffffff1673ffffffffffffffffffffffffffffffffffffffff16815260200190815260200160002060006101000a81548160ff021916908315150217905550610e58610dcc565b73ffffffffffffffffffffffffffffffffffffffff168273ffffffffffffffffffffffffffffffffffffffff16847ff6391f5c32d9c69d2a47ea670b442974b53935d1edc7fd64eb21e047a839171b60405160405180910390a460019050610ec0565b600090505b92915050565b610ed08282610985565b610f135780826040517fe2517d3f000000000000000000000000000000000000000000000000000000008152600401610f0a929190611930565b60405180910390fd5b5050565b6040518060a0016040528060008152602001600073ffffffffffffffffffffffffffffffffffffffff1681526020016000815260200160008152602001606081525090565b600080fd5b600080fd5b60007fffffffff0000000000000000000000000000000000000000000000000000000082169050919050565b610f9b81610f66565b8114610fa657600080fd5b50565b600081359050610fb881610f92565b92915050565b600060208284031215610fd457610fd3610f5c565b5b6000610fe284828501610fa9565b91505092915050565b60008115159050919050565b61100081610feb565b82525050565b600060208201905061101b6000830184610ff7565b92915050565b6000819050919050565b61103481611021565b811461103f57600080fd5b50565b6000813590506110518161102b565b92915050565b600073ffffffffffffffffffffffffffffffffffffffff82169050919050565b600061108282611057565b9050919050565b61109281611077565b811461109d57600080fd5b50565b6000813590506110af81611089565b92915050565b600080fd5b600080fd5b600080fd5b60008083601f8401126110da576110d96110b5565b5b8235905067ffffffffffffffff8111156110f7576110f66110ba565b5b602083019150836001820283011115611113576111126110bf565b5b9250929050565b60008060008060008060a0878903121561113757611136610f5c565b5b600061114589828a01611042565b965050602061115689828a016110a0565b955050604061116789828a01611042565b945050606061117889828a01611042565b935050608087013567ffffffffffffffff81111561119957611198610f61565b5b6111a589828a016110c4565b92509250509295509295509295565b6000819050919050565b6111c7816111b4565b81146111d257600080fd5b50565b6000813590506111e4816111be565b92915050565b600060208284031215611200576111ff610f5c565b5b600061120e848285016111d5565b91505092915050565b611220816111b4565b82525050565b600060208201905061123b6000830184611217565b92915050565b60006020828403121561125757611256610f5c565b5b600061126584828501611042565b91505092915050565b61127781611021565b82525050565b61128681611077565b82525050565b600081519050919050565b600082825260208201905092915050565b60005b838110156112c65780820151818401526020810190506112ab565b60008484015250505050565b6000601f19601f8301169050919050565b60006112ee8261128c565b6112f88185611297565b93506113088185602086016112a8565b611311816112d2565b840191505092915050565b600060a083016000830151611334600086018261126e565b506020830151611347602086018261127d565b50604083015161135a604086018261126e565b50606083015161136d606086018261126e565b506080830151848203608086015261138582826112e3565b9150508091505092915050565b600060208201905081810360008301526113ac818461131c565b905092915050565b600080604083850312156113cb576113ca610f5c565b5b60006113d9858286016111d5565b92505060206113ea858286016110a0565b9150509250929050565b6000806040838503121561140b5761140a610f5c565b5b600061141985828601611042565b925050602061142a85828601611042565b9150509250929050565b600082825260208201905092915050565b7f506f6c69637920616c7265616479206578697374730000000000000000000000600082015250565b600061147b601583611434565b915061148682611445565b602082019050919050565b600060208201905081810360008301526114aa8161146e565b9050919050565b7f496e76616c696420686f6c646572000000000000000000000000000000000000600082015250565b60006114e7600e83611434565b91506114f2826114b1565b602082019050919050565b60006020820190508181036000830152611516816114da565b9050919050565b7f4e487b7100000000000000000000000000000000000000000000000000000000600052604160045260246000fd5b7f4e487b7100000000000000000000000000000000000000000000000000000000600052602260045260246000fd5b6000600282049050600182168061159357607f821691505b6020821081036115a6576115a561154c565b5b50919050565b60008190508160005260206000209050919050565b60006020601f8301049050919050565b600082821b905092915050565b60006008830261160e7fffffffffffffffffffffffffffffffffffffffffffffffffffffffffffffffff826115d1565b61161886836115d1565b95508019841693508086168417925050509392505050565b6000819050919050565b600061165561165061164b84611021565b611630565b611021565b9050919050565b6000819050919050565b61166f8361163a565b61168361167b8261165c565b8484546115de565b825550505050565b600090565b61169861168b565b6116a3818484611666565b505050565b5b818110156116c7576116bc600082611690565b6001810190506116a9565b5050565b601f82111561170c576116dd816115ac565b6116e6846115c1565b810160208510156116f5578190505b611709611701856115c1565b8301826116a8565b50505b505050565b600082821c905092915050565b600061172f60001984600802611711565b1980831691505092915050565b6000611748838361171e565b9150826002028217905092915050565b6117618261128c565b67ffffffffffffffff81111561177a5761177961151d565b5b611784825461157b565b61178f8282856116cb565b600060209050601f8311600181146117c257600084156117b0578287015190505b6117ba858261173c565b865550611822565b601f1984166117d0866115ac565b60005b828110156117f8578489015182556001820191506020850194506020810190506117d3565b868310156118155784890151611811601f89168261171e565b8355505b6001600288020188555050505b505050505050565b61183381611021565b82525050565b82818337600083830152505050565b60006118548385611434565b9350611861838584611839565b61186a836112d2565b840190509392505050565b600060608201905061188a600083018761182a565b611897602083018661182a565b81810360408301526118aa818486611848565b905095945050505050565b7f506f6c696379206e6f7420666f756e6400000000000000000000000000000000600082015250565b60006118eb601083611434565b91506118f6826118b5565b602082019050919050565b6000602082019050818103600083015261191a816118de565b9050919050565b61192a81611077565b82525050565b60006040820190506119456000830185611921565b6119526020830184611217565b939250505056fea2646970667358221220e1bbf3d91b66602f219450541aae1195bff56bf482a0741e39520a38cad3826464736f6c63430008180033",
  "linkReferences": {},
  "deployedLinkReferences": {}
}