{
  "_format": "hh-sol-artifact-1",
  "contractName": "InsurancePolicy",
  "sourceName": "contracts/InsurancePolicy.sol",
  "abi": [
    {
      "inputs": [
        {
          "internalType": "address",
          "name": "admin",
          "type": "address"
        }
      ],
      "stateMutability": "nonpayable",
      "type": "constructor"
    },
    {
      "inputs": [],
      "name": "AccessControlBadConfirmation",
      "type": "error"
    },
    {
      "inputs": [
        {
          "internalType": "address",
          "name": "account",
          "type": "address"
        },
        {
          "internalType": "bytes32",
          "name": "neededRole",
          "type": "bytes32"
        }
      ],
      "name": "AccessControlUnauthorizedAccount",
      "type": "error"
    },
    {
      "anonymous": false,
      "inputs": [
        {
          "indexed": true,
          "internalType": "uint256",
          "name": "policyId",
          "type": "uint256"
        },
        {
          "indexed": true,
          "internalType": "address",
          "name": "holder",
          "type": "address"
        },
        {
          "indexed": false,
          "internalType": "uint256",
          "name": "validFrom",
          "type": "uint256"
        },
        {
          "indexed": false,
          "internalType": "uint256",
          "name": "validUntil",
          "type": "uint256"
        },
        {
          "indexed": false,
          "internalType": "string",
          "name": "meta",
          "type": "string"
        }
      ],
      "name": "PolicyRegistered",
      "type": "event"
    },
    {
      "anonymous": false,
      "inputs": [
        {
          "indexed": true,
          "internalType": "bytes32",
          "name": "role",
          "type": "bytes32"
        },
        {
          "indexed": true,
          "internalType": "bytes32",
          "name": "previousAdminRole",
          "type": "bytes32"
        },
        {
          "indexed": true,
          "internalType": "bytes32",
          "name": "newAdminRole",
          "type": "bytes32"
        }
      ],
      "name": "RoleAdminChanged",
      "type": "event"
    },
    {
      "anonymous": false,
      "inputs": [
        {
          "indexed": true,
          "internalType": "bytes32",
          "name": "role",
          "type": "bytes32"
        },
        {
          "indexed": true,
          "internalType": "address",
          "name": "account",
          "type": "address"
        },
        {
          "indexed": true,
          "internalType": "address",
          "name": "sender",
          "type": "address"
        }
      ],
      "name": "RoleGranted",
      "type": "event"
    },
    {
      "anonymous": false,
      "inputs": [
        {
          "indexed": true,
          "internalType": "bytes32",
          "name": "role",
          "type": "bytes32"
        },
        {
          "indexed": true,
          "internalType": "address",
          "name": "account",
          "type": "address"
        },
        {
          "indexed": true,
          "internalType": "address",
          "name": "sender",
          "type": "address"
        }
      ],
      "name": "RoleRevoked",
      "type": "event"
    },
    {
      "inputs": [],
      "name": "ADMIN_ROLE",
      "outputs": [
        {
          "internalType": "bytes32",
          "name": "",
          "type": "bytes32"
        }
      ],
      "stateMutability": "view",
      "type": "function"
    },
    {
      "inputs": [],
      "name": "DEFAULT_ADMIN_ROLE",
      "outputs": [
        {
          "internalType": "bytes32",
          "name": "",
          "type": "bytes32"
        }
      ],
      "stateMutability": "view",
      "type": "function"
    },
    {
      "inputs": [
        {
          "internalType": "uint256",
          "name": "policyId",
          "type": "uint256"
        }
      ],
      "name": "getPolicy",
      "outputs": [
        {
          "components": [
            {
              "internalType": "uint256",
              "name": "policyId",
              "type": "uint256"
            },
            {
              "internalType": "address",
              "name": "holder",
              "type": "address"
            },
            {
              "internalType": "uint256",
              "name": "validFrom",
              "type": "uint256"
            },
            {
              "internalType": "uint256",
              "name": "validUntil",
              "type": "uint256"
            },
            {
              "internalType": "string",
              "name": "meta",
              "type": "string"
            }
          ],
          "internalType": "struct InsurancePolicy.Policy",
          "name": "",
          "type": "tuple"
        }
      ],
      "stateMutability": "view",
      "type": "function"
    },
    {
      "inputs": [
        {
          "internalType": "bytes32",
          "name": "role",
          "type": "bytes32"
        }
      ],
      "name": "getRoleAdmin",
      "outputs": [
        {
          "internalType": "bytes32",
          "name": "",
          "type": "bytes32"
        }
      ],
      "stateMutability": "view",
      "type": "function"
    },
    {
      "inputs": [
        {
          "internalType": "bytes32",
          "name": "role",
          "type": "bytes32"
        },
        {
          "internalType": "address",
          "name": "account",
          "type": "address"
        }
      ],
      "name": "grantRole",
      "outputs": [],
      "stateMutability": "nonpayable",
      "type": "function"
    },
    {
      "inputs": [
        {
          "internalType": "bytes32",
          "name": "role",
          "type": "bytes32"
        },
        {
          "internalType": "address",
          "name": "account",
          "type": "address"
        }
      ],
      "name": "hasRole",
      "outputs": [
        {
          "internalType": "bool",
          "name": "",
          "type": "bool"
        }
      ],
      "stateMutability": "view",
      "type": "function"
    },
    {
      "inputs": [
        {
          "internalType": "uint256",
          "name": "policyId",
          "type": "uint256"
        },
        {
          "internalType": "uint256",
          "name": "atTime",
          "type": "uint256"
        }
      ],
      "name": "isPolicyActive",
      "outputs": [
        {
          "internalType": "bool",
          "name": "",
          "type": "bool"
        }
      ],
      "stateMutability": "view",
      "type": "function"
    },
    {
      "inputs": [
        {
          "internalType": "uint256",
          "name": "policyId",
          "type": "uint256"
        },
        {
          "internalType": "address",
          "name": "holder",
          "type": "address"
        },
        {
          "internalType": "uint256",
          "name": "validFrom",
          "type": "uint256"
        },
        {
          "internalType": "uint256",
          "name": "validUntil",
          "type": "uint256"
        },
        {
          "internalType": "string",
          "name": "meta",
          "type": "string"
        }
      ],
      "name": "registerPolicy",
      "outputs": [],
      "stateMutability": "nonpayable",
      "type": "function"
    },
    {
      "inputs": [
        {
          "internalType": "bytes32",
          "name": "role",
          "type": "bytes32"
        },
        {
          "internalType": "address",
          "name": "callerConfirmation",
          "type": "address"
        }
      ],
      "name": "renounceRole",
      "outputs": [],
      "stateMutability": "nonpayable",
      "type": "function"
    },
    {
      "inputs": [
        {
          "internalType": "bytes32",
          "name": "role",
          "type": "bytes32"
        },
        {
          "internalType": "address",
          "name": "account",
          "type": "address"
        }
      ],
      "name": "revokeRole",
      "outputs": [],
      "stateMutability": "nonpayable",
      "type": "function"
    },
    {
      "inputs": [
        {
          "internalType": "bytes4",
          "name": "interfaceId",
          "type": "bytes4"
        }
      ],
      "name": "supportsInterface",
      "outputs": [
        {
          "internalType": "bool",
          "name": "",
          "type": "bool"
        }
      ],
      "stateMutability": "view",
      "type": "function"
    }
  ],
  "bytecode": "0x60806040523480156200001157600080fd5b50604051620019b4380380620019b4833981810160405281019062000037919062000266565b6200004c6000801b826200008760201b60201c565b506200007f7fa49807205ce4d355092ef5a8a18f56e8913cf4a201fbe287825b095693c21775826200008760201b60201c565b505062000298565b60006200009b83836200018a60201b60201c565b6200017f57600160008085815260200190815260200160002060000160008473ffffffffffffffffffffffffffffffffffffffff1673ffffffffffffffffffffffffffffffffffffffff16815260200190815260200160002060006101000a81548160ff0219169083151502179055506200011b620001f460201b60201c565b73ffffffffffffffffffffffffffffffffffffffff168273ffffffffffffffffffffffffffffffffffffffff16847f2f8788117e7eff1d82e926ec794901d17c78024a50270940304540a733656f0d60405160405180910390a46001905062000184565b600090505b92915050565b600080600084815260200190815260200160002060000160008373ffffffffffffffffffffffffffffffffffffffff1673ffffffffffffffffffffffffffffffffffffffff16815260200190815260200160002060009054906101000a900460ff16905092915050565b600033905090565b600080fd5b600073ffffffffffffffffffffffffffffffffffffffff82169050919050565b60006200022e8262000201565b9050919050565b620002408162000221565b81146200024c57600080fd5b50565b600081519050620002608162000235565b92915050565b6000602082840312156200027f576200027e620001fc565b5b60006200028f848285016200024f565b91505092915050565b61170c80620002a86000396000f3fe608060405234801561001057600080fd5b50600436106100a95760003560e01c806336568abe1161007157806336568abe1461017657806375b238fc1461019257806391d14854146101b0578063a217fddf146101e0578063ce7e0237146101fe578063d547741f1461022e576100a9565b806301ffc9a7146100ae5780631f951c6c146100de578063248a9ca3146100fa5780632b07fce31461012a5780632f2ff15d1461015a575b600080fd5b6100c860048036038101906100c39190610d3b565b61024a565b6040516100d59190610d83565b60405180910390f35b6100f860048036038101906100f39190610e97565b6102c4565b005b610114600480360381019061010f9190610f67565b61055a565b6040516101219190610fa3565b60405180910390f35b610144600480360381019061013f9190610fbe565b610579565b604051610151919061110f565b60405180910390f35b610174600480360381019061016f9190611131565b61070c565b005b610190600480360381019061018b9190611131565b61072e565b005b61019a6107a9565b6040516101a79190610fa3565b60405180910390f35b6101ca60048036038101906101c59190611131565b6107cd565b6040516101d79190610d83565b60405180910390f35b6101e8610837565b6040516101f59190610fa3565b60405180910390f35b61021860048036038101906102139190611171565b61083e565b6040516102259190610d83565b60405180910390f35b61024860048036038101906102439190611131565b6109b8565b005b60007f7965db0b000000000000000000000000000000000000000000000000000000007bffffffffffffffffffffffffffffffffffffffffffffffffffffffff1916827bffffffffffffffffffffffffffffffffffffffffffffffffffffffff191614806102bd57506102bc826109da565b5b9050919050565b7fa49807205ce4d355092ef5a8a18f56e8913cf4a201fbe287825b095693c217756102ee81610a44565b6002600088815260200190815260200160002060009054906101000a900460ff161561034f576040517f08c379a00000000000000000000000000000000000000000000000000000000081526004016103469061120e565b60405180910390fd5b600073ffffffffffffffffffffffffffffffffffffffff168673ffffffffffffffffffffffffffffffffffffffff16036103be576040517f08c379a00000000000000000000000000000000000000000000000000000000081526004016103b59061127a565b60405180910390fd5b6040518060a001604052808881526020018773ffffffffffffffffffffffffffffffffffffffff16815260200186815260200185815260200184848080601f016020809104026020016040519081016040528093929190818152602001838380828437600081840152601f19601f82011690508083019250505050505050815250600160008981526020019081526020016000206000820151816000015560208201518160010160006101000a81548173ffffffffffffffffffffffffffffffffffffffff021916908373ffffffffffffffffffffffffffffffffffffffff160217905550604082015181600201556060820151816003015560808201518160040190816104cc91906114d5565b5090505060016002600089815260200190815260200160002060006101000a81548160ff0219169083151502179055508573ffffffffffffffffffffffffffffffffffffffff16877f61015659322e821e2b2d178f34d42c6f55fe65edd0fcd1039f25f431f80cea848787878760405161054994939291906115f2565b60405180910390a350505050505050565b6000806000838152602001908152602001600020600101549050919050565b610581610c94565b6002600083815260200190815260200160002060009054906101000a900460ff166105e1576040517f08c379a00000000000000000000000000000000000000000000000000000000081526004016105d89061167e565b60405180910390fd5b600160008381526020019081526020016000206040518060a0016040529081600082015481526020016001820160009054906101000a900473ffffffffffffffffffffffffffffffffffffffff1673ffffffffffffffffffffffffffffffffffffffff1673ffffffffffffffffffffffffffffffffffffffff1681526020016002820154815260200160038201548152602001600482018054610683906112f8565b80601f01602080910402602001604051908101604052809291908181526020018280546106af906112f8565b80156106fc5780601f106106d1576101008083540402835291602001916106fc565b820191906000526020600020905b8154815290600101906020018083116106df57829003601f168201915b5050505050815250509050919050565b6107158261055a565b61071e81610a44565b6107288383610a58565b50505050565b610736610b49565b73ffffffffffffffffffffffffffffffffffffffff168173ffffffffffffffffffffffffffffffffffffffff161461079a576040517f6697b23200000000000000000000000000000000000000000000000000000000815260040160405180910390fd5b6107a48282610b51565b505050565b7fa49807205ce4d355092ef5a8a18f56e8913cf4a201fbe287825b095693c2177581565b600080600084815260200190815260200160002060000160008373ffffffffffffffffffffffffffffffffffffffff1673ffffffffffffffffffffffffffffffffffffffff16815260200190815260200160002060009054906101000a900460ff16905092915050565b6000801b81565b60006002600084815260200190815260200160002060009054906101000a900460ff1661086e57600090506109b2565b6000600160008581526020019081526020016000206040518060a0016040529081600082015481526020016001820160009054906101000a900473ffffffffffffffffffffffffffffffffffffffff1673ffffffffffffffffffffffffffffffffffffffff1673ffffffffffffffffffffffffffffffffffffffff1681526020016002820154815260200160038201548152602001600482018054610912906112f8565b80601f016020809104026020016040519081016040528092919081815260200182805461093e906112f8565b801561098b5780601f106109605761010080835404028352916020019161098b565b820191906000526020600020905b81548152906001019060200180831161096e57829003601f168201915b5050505050815250509050806040015183101580156109ae575080606001518311155b9150505b92915050565b6109c18261055a565b6109ca81610a44565b6109d48383610b51565b50505050565b60007f01ffc9a7000000000000000000000000000000000000000000000000000000007bffffffffffffffffffffffffffffffffffffffffffffffffffffffff1916827bffffffffffffffffffffffffffffffffffffffffffffffffffffffff1916149050919050565b610a5581610a50610b49565b610c43565b50565b6000610a6483836107cd565b610b3e57600160008085815260200190815260200160002060000160008473ffffffffffffffffffffffffffffffffffffffff1673ffffffffffffffffffffffffffffffffffffffff16815260200190815260200160002060006101000a81548160ff021916908315150217905550610adb610b49565b73ffffffffffffffffffffffffffffffffffffffff168273ffffffffffffffffffffffffffffffffffffffff16847f2f8788117e7eff1d82e926ec794901d17c78024a50270940304540a733656f0d60405160405180910390a460019050610b43565b600090505b92915050565b600033905090565b6000610b5d83836107cd565b15610c3857600080600085815260200190815260200160002060000160008473ffffffffffffffffffffffffffffffffffffffff1673ffffffffffffffffffffffffffffffffffffffff16815260200190815260200160002060006101000a81548160ff021916908315150217905550610bd5610b49565b73ffffffffffffffffffffffffffffffffffffffff168273ffffffffffffffffffffffffffffffffffffffff16847ff6391f5c32d9c69d2a47ea670b442974b53935d1edc7fd64eb21e047a839171b60405160405180910390a460019050610c3d565b600090505b92915050565b610c4d82826107cd565b610c905780826040517fe2517d3f000000000000000000000000000000000000000000000000000000008152600401610c879291906116ad565b60405180910390fd5b5050565b6040518060a0016040528060008152602001600073ffffffffffffffffffffffffffffffffffffffff1681526020016000815260200160008152602001606081525090565b600080fd5b600080fd5b60007fffffffff0000000000000000000000000000000000000000000000000000000082169050919050565b610d1881610ce3565b8114610d2357600080fd5b50565b600081359050610d3581610d0f565b92915050565b600060208284031215610d5157610d50610cd9565b5b6000610d5f84828501610d26565b91505092915050565b60008115159050919050565b610d7d81610d68565b82525050565b6000602082019050610d986000830184610d74565b92915050565b6000819050919050565b610db181610d9e565b8114610dbc57600080fd5b50565b600081359050610dce81610da8565b92915050565b600073ffffffffffffffffffffffffffffffffffffffff82169050919050565b6000610dff82610dd4565b9050919050565b610e0f81610df4565b8114610e1a57600080fd5b50565b600081359050610e2c81610e06565b92915050565b600080fd5b600080fd5b600080fd5b60008083601f840112610e5757610e56610e32565b5b8235905067ffffffffffffffff811115610e7457610e73610e37565b5b602083019150836001820283011115610e9057610e8f610e3c565b5b9250929050565b60008060008060008060a08789031215610eb457610eb3610cd9565b5b6000610ec289828a01610dbf565b9650506020610ed389828a01610e1d565b9550506040610ee489828a01610dbf565b9450506060610ef589828a01610dbf565b935050608087013567ffffffffffffffff811115610f1657610f15610cde565b5b610f2289828a01610e41565b92509250509295509295509295565b6000819050919050565b610f4481610f31565b8114610f4f57600080fd5b50565b600081359050610f6181610f3b565b92915050565b600060208284031215610f7d57610f7c610cd9565b5b6000610f8b84828501610f52565b91505092915050565b610f9d81610f31565b82525050565b6000602082019050610fb86000830184610f94565b92915050565b600060208284031215610fd457610fd3610cd9565b5b6000610fe284828501610dbf565b91505092915050565b610ff481610d9e565b82525050565b61100381610df4565b82525050565b600081519050919050565b600082825260208201905092915050565b60005b83811015611043578082015181840152602081019050611028565b60008484015250505050565b6000601f19601f8301169050919050565b600061106b82611009565b6110758185611014565b9350611085818560208601611025565b61108e8161104f565b840191505092915050565b600060a0830160008301516110b16000860182610feb565b5060208301516110c46020860182610ffa565b5060408301516110d76040860182610feb565b5060608301516110ea6060860182610feb565b50608083015184820360808601526111028282611060565b9150508091505092915050565b600060208201905081810360008301526111298184611099565b905092915050565b6000806040838503121561114857611147610cd9565b5b600061115685828601610f52565b925050602061116785828601610e1d565b9150509250929050565b6000806040838503121561118857611187610cd9565b5b600061119685828601610dbf565b92505060206111a785828601610dbf565b9150509250929050565b600082825260208201905092915050565b7f506f6c69637920616c7265616479206578697374730000000000000000000000600082015250565b60006111f86015836111b1565b9150611203826111c2565b602082019050919050565b60006020820190508181036000830152611227816111eb565b9050919050565b7f496e76616c696420686f6c646572000000000000000000000000000000000000600082015250565b6000611264600e836111b1565b915061126f8261122e565b602082019050919050565b6000602082019050818103600083015261129381611257565b9050919050565b7f4e487b7100000000000000000000000000000000000000000000000000000000600052604160045260246000fd5b7f4e487b7100000000000000000000000000000000000000000000000000000000600052602260045260246000fd5b6000600282049050600182168061131057607f821691505b602082108103611323576113226112c9565b5b50919050565b60008190508160005260206000209050919050565b60006020601f8301049050919050565b600082821b905092915050565b60006008830261138b7fffffffffffffffffffffffffffffffffffffffffffffffffffffffffffffffff8261134e565b611395868361134e565b95508019841693508086168417925050509392505050565b6000819050919050565b60006113d26113cd6113c884610d9e565b6113ad565b610d9e565b9050919050565b6000819050919050565b6113ec836113b7565b6114006113f8826113d9565b84845461135b565b825550505050565b600090565b611415611408565b6114208184846113e3565b505050565b5b818110156114445761143960008261140d565b600181019050611426565b5050565b601f8211156114895761145a81611329565b6114638461133e565b81016020851015611472578190505b61148661147e8561133e565b830182611425565b50505b505050565b600082821c905092915050565b60006114ac6000198460080261148e565b1980831691505092915050565b60006114c5838361149b565b9150826002028217905092915050565b6114de82611009565b67ffffffffffffffff8111156114f7576114f661129a565b5b61150182546112f8565b61150c828285611448565b600060209050601f83116001811461153f576000841561152d578287015190505b61153785826114b9565b86555061159f565b601f19841661154d86611329565b60005b8281101561157557848901518255600182019150602085019450602081019050611550565b86831015611592578489015161158e601f89168261149b565b8355505b6001600288020188555050505b505050505050565b6115b081610d9e565b82525050565b82818337600083830152505050565b60006115d183856111b1565b93506115de8385846115b6565b6115e78361104f565b840190509392505050565b600060608201905061160760008301876115a7565b61161460208301866115a7565b81810360408301526116278184866115c5565b905095945050505050565b7f506f6c696379206e6f7420666f756e6400000000000000000000000000000000600082015250565b60006116686010836111b1565b915061167382611632565b602082019050919050565b600060208201905081810360008301526116978161165b565b9050919050565b6116a781610df4565b82525050565b60006040820190506116c2600083018561169e565b6116cf6020830184610f94565b939250505056fea26469706673582212204b45add29b0c8bcb20ac132eaa8b9060017f80da8f4fa9c078458fc0132ef37264736f6c63430008180033",
  "linkReferences": {},
  "deployedLinkReferences": {}
}